{
  "_format": "hh-sol-artifact-1",
  "contractName": "RentalEscrow",
  "sourceName": "contracts/RentalEscrow.sol",
  "abi": [
    {
      "inputs": [
        {
          "internalType": "address",
          "name": "_usdcTokenAddress",
          "type": "address"
        },
        {
          "internalType": "address",
          "name": "_accessNFTAddress",
          "type": "address"
        }
      ],
      "stateMutability": "nonpayable",
      "type": "constructor"
    },
    {
      "anonymous": false,
      "inputs": [
        {
          "indexed": true,
          "internalType": "address",
          "name": "previousOwner",
          "type": "address"
        },
        {
          "indexed": true,
          "internalType": "address",
          "name": "newOwner",
          "type": "address"
        }
      ],
      "name": "OwnershipTransferred",
      "type": "event"
    },
    {
      "anonymous": false,
      "inputs": [
        {
          "indexed": true,
          "internalType": "uint256",
          "name": "rentalId",
          "type": "uint256"
        },
        {
          "indexed": true,
          "internalType": "address",
          "name": "lender",
          "type": "address"
        },
        {
          "indexed": false,
          "internalType": "uint256",
          "name": "amount",
          "type": "uint256"
        }
      ],
      "name": "PaymentReleased",
      "type": "event"
    },
    {
      "anonymous": false,
      "inputs": [
        {
          "indexed": true,
          "internalType": "uint256",
          "name": "rentalId",
          "type": "uint256"
        },
        {
          "indexed": true,
          "internalType": "address",
          "name": "borrower",
          "type": "address"
        },
        {
          "indexed": false,
          "internalType": "uint256",
          "name": "refundAmount",
          "type": "uint256"
        }
      ],
      "name": "RentalCanceled",
      "type": "event"
    },
    {
      "anonymous": false,
      "inputs": [
        {
          "indexed": true,
          "internalType": "uint256",
          "name": "rentalId",
          "type": "uint256"
        },
        {
          "indexed": true,
          "internalType": "uint256",
          "name": "tokenId",
          "type": "uint256"
        },
        {
          "indexed": true,
          "internalType": "address",
          "name": "lender",
          "type": "address"
        },
        {
          "indexed": false,
          "internalType": "address",
          "name": "borrower",
          "type": "address"
        },
        {
          "indexed": false,
          "internalType": "uint256",
          "name": "amount",
          "type": "uint256"
        }
      ],
      "name": "RentalCreated",
      "type": "event"
    },
    {
      "inputs": [],
      "name": "accessNFT",
      "outputs": [
        {
          "internalType": "contract IAccessNFT",
          "name": "",
          "type": "address"
        }
      ],
      "stateMutability": "view",
      "type": "function"
    },
    {
      "inputs": [
        {
          "internalType": "uint256",
          "name": "rentalId",
          "type": "uint256"
        }
      ],
      "name": "cancelRental",
      "outputs": [],
      "stateMutability": "nonpayable",
      "type": "function"
    },
    {
      "inputs": [
        {
          "internalType": "uint256",
          "name": "rentalId",
          "type": "uint256"
        }
      ],
      "name": "checkRentalExpiry",
      "outputs": [
        {
          "internalType": "bool",
          "name": "",
          "type": "bool"
        }
      ],
      "stateMutability": "view",
      "type": "function"
    },
    {
      "inputs": [
        {
          "internalType": "bytes",
          "name": "checkData",
          "type": "bytes"
        }
      ],
      "name": "checkUpkeep",
      "outputs": [
        {
          "internalType": "bool",
          "name": "upkeepNeeded",
          "type": "bool"
        },
        {
          "internalType": "bytes",
          "name": "performData",
          "type": "bytes"
        }
      ],
      "stateMutability": "view",
      "type": "function"
    },
    {
      "inputs": [
        {
          "internalType": "uint256",
          "name": "tokenId",
          "type": "uint256"
        },
        {
          "internalType": "address",
          "name": "borrower",
          "type": "address"
        },
        {
          "internalType": "uint64",
          "name": "durationInMinutes",
          "type": "uint64"
        }
      ],
      "name": "createRental",
      "outputs": [],
      "stateMutability": "nonpayable",
      "type": "function"
    },
    {
      "inputs": [],
      "name": "owner",
      "outputs": [
        {
          "internalType": "address",
          "name": "",
          "type": "address"
        }
      ],
      "stateMutability": "view",
      "type": "function"
    },
    {
      "inputs": [
        {
          "internalType": "bytes",
          "name": "performData",
          "type": "bytes"
        }
      ],
      "name": "performUpkeep",
      "outputs": [],
      "stateMutability": "nonpayable",
      "type": "function"
    },
    {
      "inputs": [
        {
          "internalType": "uint256",
          "name": "rentalId",
          "type": "uint256"
        }
      ],
      "name": "releasePayment",
      "outputs": [],
      "stateMutability": "nonpayable",
      "type": "function"
    },
    {
      "inputs": [],
      "name": "renounceOwnership",
      "outputs": [],
      "stateMutability": "nonpayable",
      "type": "function"
    },
    {
      "inputs": [
        {
          "internalType": "uint256",
          "name": "",
          "type": "uint256"
        }
      ],
      "name": "rentalIds",
      "outputs": [
        {
          "internalType": "uint256",
          "name": "",
          "type": "uint256"
        }
      ],
      "stateMutability": "view",
      "type": "function"
    },
    {
      "inputs": [
        {
          "internalType": "uint256",
          "name": "",
          "type": "uint256"
        }
      ],
      "name": "rentals",
      "outputs": [
        {
          "internalType": "uint256",
          "name": "tokenId",
          "type": "uint256"
        },
        {
          "internalType": "address",
          "name": "lender",
          "type": "address"
        },
        {
          "internalType": "address",
          "name": "borrower",
          "type": "address"
        },
        {
          "internalType": "uint256",
          "name": "amount",
          "type": "uint256"
        },
        {
          "internalType": "uint64",
          "name": "startTime",
          "type": "uint64"
        },
        {
          "internalType": "uint64",
          "name": "duration",
          "type": "uint64"
        },
        {
          "internalType": "bool",
          "name": "isActive",
          "type": "bool"
        },
        {
          "internalType": "bool",
          "name": "isPaidOut",
          "type": "bool"
        }
      ],
      "stateMutability": "view",
      "type": "function"
    },
    {
      "inputs": [
        {
          "internalType": "address",
          "name": "newOwner",
          "type": "address"
        }
      ],
      "name": "transferOwnership",
      "outputs": [],
      "stateMutability": "nonpayable",
      "type": "function"
    },
    {
      "inputs": [],
      "name": "usdcToken",
      "outputs": [
        {
          "internalType": "contract IERC20",
          "name": "",
          "type": "address"
        }
      ],
      "stateMutability": "view",
      "type": "function"
    }
  ],
  "bytecode": "0x60806040523480156200001157600080fd5b50604051620027d4380380620027d4833981810160405281019062000037919062000221565b60016000819055506200005f62000053620000e960201b60201c565b620000f160201b60201c565b81600260006101000a81548173ffffffffffffffffffffffffffffffffffffffff021916908373ffffffffffffffffffffffffffffffffffffffff16021790555080600360006101000a81548173ffffffffffffffffffffffffffffffffffffffff021916908373ffffffffffffffffffffffffffffffffffffffff160217905550505062000268565b600033905090565b6000600160009054906101000a900473ffffffffffffffffffffffffffffffffffffffff16905081600160006101000a81548173ffffffffffffffffffffffffffffffffffffffff021916908373ffffffffffffffffffffffffffffffffffffffff1602179055508173ffffffffffffffffffffffffffffffffffffffff168173ffffffffffffffffffffffffffffffffffffffff167f8be0079c531659141344cd1fd0a4f28419497f9722a3daafe3b4186f6b6457e060405160405180910390a35050565b600080fd5b600073ffffffffffffffffffffffffffffffffffffffff82169050919050565b6000620001e982620001bc565b9050919050565b620001fb81620001dc565b81146200020757600080fd5b50565b6000815190506200021b81620001f0565b92915050565b600080604083850312156200023b576200023a620001b7565b5b60006200024b858286016200020a565b92505060206200025e858286016200020a565b9150509250929050565b61255c80620002786000396000f3fe608060405234801561001057600080fd5b50600436106100cf5760003560e01c806388685cd91161008c578063af94a1d111610066578063af94a1d1146101eb578063b9352c5114610222578063ebfa74c914610240578063f2fde38b14610270576100cf565b806388685cd9146101815780638da5cb5b1461019d578063a47626b5146101bb576100cf565b806311eac855146100d45780631ce305f0146100f25780634585e33b1461010e5780635e0dacb41461012a5780636e04ff0d14610146578063715018a614610177575b600080fd5b6100dc61028c565b6040516100e991906117b5565b60405180910390f35b61010c6004803603810190610107919061188e565b6102b2565b005b61012860048036038101906101239190611946565b610863565b005b610144600480360381019061013f9190611993565b610867565b005b610160600480360381019061015b9190611946565b610b6b565b60405161016e929190611a6b565b60405180910390f35b61017f610bc1565b005b61019b60048036038101906101969190611993565b610bd5565b005b6101a5610e6b565b6040516101b29190611aaa565b60405180910390f35b6101d560048036038101906101d09190611993565b610e95565b6040516101e29190611ac5565b60405180910390f35b61020560048036038101906102009190611993565b611062565b604051610219989796959493929190611afe565b60405180910390f35b61022a61112c565b6040516102379190611b9d565b60405180910390f35b61025a60048036038101906102559190611993565b611152565b6040516102679190611bb8565b60405180910390f35b61028a60048036038101906102859190611bd3565b61116a565b005b600260009054906101000a900473ffffffffffffffffffffffffffffffffffffffff1681565b6102ba6111ed565b6000600360009054906101000a900473ffffffffffffffffffffffffffffffffffffffff1673ffffffffffffffffffffffffffffffffffffffff16636352211e856040518263ffffffff1660e01b81526004016103179190611bb8565b602060405180830381865afa158015610334573d6000803e3d6000fd5b505050506040513d601f19601f820116820180604052508101906103589190611c15565b90508273ffffffffffffffffffffffffffffffffffffffff163373ffffffffffffffffffffffffffffffffffffffff16146103c8576040517f08c379a00000000000000000000000000000000000000000000000000000000081526004016103bf90611c9f565b60405180910390fd5b8073ffffffffffffffffffffffffffffffffffffffff168373ffffffffffffffffffffffffffffffffffffffff1603610436576040517f08c379a000000000000000000000000000000000000000000000000000000000815260040161042d90611d0b565b60405180910390fd5b6000600360009054906101000a900473ffffffffffffffffffffffffffffffffffffffff1673ffffffffffffffffffffffffffffffffffffffff1663c474a946866040518263ffffffff1660e01b81526004016104939190611bb8565b602060405180830381865afa1580156104b0573d6000803e3d6000fd5b505050506040513d601f19601f820116820180604052508101906104d49190611d40565b905060008367ffffffffffffffff16826104ee9190611d9c565b905060006006600081548092919061050590611dde565b9190505590506040518061010001604052808881526020018573ffffffffffffffffffffffffffffffffffffffff1681526020018773ffffffffffffffffffffffffffffffffffffffff1681526020018381526020014267ffffffffffffffff1681526020018667ffffffffffffffff16815260200160011515815260200160001515815250600460008381526020019081526020016000206000820151816000015560208201518160010160006101000a81548173ffffffffffffffffffffffffffffffffffffffff021916908373ffffffffffffffffffffffffffffffffffffffff16021790555060408201518160020160006101000a81548173ffffffffffffffffffffffffffffffffffffffff021916908373ffffffffffffffffffffffffffffffffffffffff1602179055506060820151816003015560808201518160040160006101000a81548167ffffffffffffffff021916908367ffffffffffffffff16021790555060a08201518160040160086101000a81548167ffffffffffffffff021916908367ffffffffffffffff16021790555060c08201518160040160106101000a81548160ff02191690831515021790555060e08201518160040160116101000a81548160ff021916908315150217905550905050806005600089815260200190815260200160002081905550610748863084600260009054906101000a900473ffffffffffffffffffffffffffffffffffffffff1673ffffffffffffffffffffffffffffffffffffffff1661123c909392919063ffffffff16565b6000603c866107579190611e26565b67ffffffffffffffff164261076c9190611e63565b9050600360009054906101000a900473ffffffffffffffffffffffffffffffffffffffff1673ffffffffffffffffffffffffffffffffffffffff16631b8a910d8989846040518463ffffffff1660e01b81526004016107cd93929190611e97565b600060405180830381600087803b1580156107e757600080fd5b505af11580156107fb573d6000803e3d6000fd5b505050508473ffffffffffffffffffffffffffffffffffffffff1688837f028c238b0e01f5cea7b18205312cd7eca9240d143640931f45c4e56e75e6d46d8a87604051610849929190611ece565b60405180910390a4505050505061085e6112c5565b505050565b5050565b61086f6111ed565b60006004600083815260200190815260200160002090508060040160109054906101000a900460ff166108d7576040517f08c379a00000000000000000000000000000000000000000000000000000000081526004016108ce90611f43565b60405180910390fd5b8060020160009054906101000a900473ffffffffffffffffffffffffffffffffffffffff1673ffffffffffffffffffffffffffffffffffffffff163373ffffffffffffffffffffffffffffffffffffffff16148061098457508060010160009054906101000a900473ffffffffffffffffffffffffffffffffffffffff1673ffffffffffffffffffffffffffffffffffffffff163373ffffffffffffffffffffffffffffffffffffffff16145b6109c3576040517f08c379a00000000000000000000000000000000000000000000000000000000081526004016109ba90611faf565b60405180910390fd5b600360009054906101000a900473ffffffffffffffffffffffffffffffffffffffff1673ffffffffffffffffffffffffffffffffffffffff16635113edc582600001546040518263ffffffff1660e01b8152600401610a229190611bb8565b600060405180830381600087803b158015610a3c57600080fd5b505af1158015610a50573d6000803e3d6000fd5b5050505060008160030154905060008260040160106101000a81548160ff021916908315150217905550610aeb8260020160009054906101000a900473ffffffffffffffffffffffffffffffffffffffff1682600260009054906101000a900473ffffffffffffffffffffffffffffffffffffffff1673ffffffffffffffffffffffffffffffffffffffff166112cf9092919063ffffffff16565b8160020160009054906101000a900473ffffffffffffffffffffffffffffffffffffffff1673ffffffffffffffffffffffffffffffffffffffff16837fca252e893dc6af8dc22e1b911eaf21aba150aa2b5c055956d82dc1643e20f07a83604051610b569190611bb8565b60405180910390a35050610b686112c5565b50565b600060606000915083838080601f016020809104026020016040519081016040528093929190818152602001838380828437600081840152601f19601f8201169050808301925050505050505090509250929050565b610bc9611355565b610bd360006113d3565b565b610bdd611355565b610be56111ed565b60006004600083815260200190815260200160002090508060040160109054906101000a900460ff16610c4d576040517f08c379a0000000000000000000000000000000000000000000000000000000008152600401610c4490611f43565b60405180910390fd5b8060040160119054906101000a900460ff1615610c9f576040517f08c379a0000000000000000000000000000000000000000000000000000000008152600401610c969061201b565b60405180910390fd5b6000603c8260040160089054906101000a900467ffffffffffffffff16610cc69190611e26565b8260040160009054906101000a900467ffffffffffffffff16610ce9919061203b565b67ffffffffffffffff16905080421015610d38576040517f08c379a0000000000000000000000000000000000000000000000000000000008152600401610d2f906120c3565b60405180910390fd5b60018260040160116101000a81548160ff02191690831515021790555060008260040160106101000a81548160ff021916908315150217905550610de78260010160009054906101000a900473ffffffffffffffffffffffffffffffffffffffff168360030154600260009054906101000a900473ffffffffffffffffffffffffffffffffffffffff1673ffffffffffffffffffffffffffffffffffffffff166112cf9092919063ffffffff16565b8160010160009054906101000a900473ffffffffffffffffffffffffffffffffffffffff1673ffffffffffffffffffffffffffffffffffffffff16837f21d71db5be59bb9fa133895586b7404307dd33fb93b16db09dc6f1d9d7d231b08460030154604051610e569190611bb8565b60405180910390a35050610e686112c5565b50565b6000600160009054906101000a900473ffffffffffffffffffffffffffffffffffffffff16905090565b6000806004600084815260200190815260200160002060405180610100016040529081600082015481526020016001820160009054906101000a900473ffffffffffffffffffffffffffffffffffffffff1673ffffffffffffffffffffffffffffffffffffffff1673ffffffffffffffffffffffffffffffffffffffff1681526020016002820160009054906101000a900473ffffffffffffffffffffffffffffffffffffffff1673ffffffffffffffffffffffffffffffffffffffff1673ffffffffffffffffffffffffffffffffffffffff168152602001600382015481526020016004820160009054906101000a900467ffffffffffffffff1667ffffffffffffffff1667ffffffffffffffff1681526020016004820160089054906101000a900467ffffffffffffffff1667ffffffffffffffff1667ffffffffffffffff1681526020016004820160109054906101000a900460ff161515151581526020016004820160119054906101000a900460ff16151515158152505090508060c0015161102657600191505061105d565b6000603c8260a001516110399190611e26565b8260800151611048919061203b565b67ffffffffffffffff16905080421015925050505b919050565b60046020528060005260406000206000915090508060000154908060010160009054906101000a900473ffffffffffffffffffffffffffffffffffffffff16908060020160009054906101000a900473ffffffffffffffffffffffffffffffffffffffff16908060030154908060040160009054906101000a900467ffffffffffffffff16908060040160089054906101000a900467ffffffffffffffff16908060040160109054906101000a900460ff16908060040160119054906101000a900460ff16905088565b600360009054906101000a900473ffffffffffffffffffffffffffffffffffffffff1681565b60056020528060005260406000206000915090505481565b611172611355565b600073ffffffffffffffffffffffffffffffffffffffff168173ffffffffffffffffffffffffffffffffffffffff16036111e1576040517f08c379a00000000000000000000000000000000000000000000000000000000081526004016111d890612155565b60405180910390fd5b6111ea816113d3565b50565b600260005403611232576040517f08c379a0000000000000000000000000000000000000000000000000000000008152600401611229906121c1565b60405180910390fd5b6002600081905550565b6112bf846323b872dd60e01b85858560405160240161125d939291906121e1565b604051602081830303815290604052907bffffffffffffffffffffffffffffffffffffffffffffffffffffffff19166020820180517bffffffffffffffffffffffffffffffffffffffffffffffffffffffff8381831617835250505050611499565b50505050565b6001600081905550565b6113508363a9059cbb60e01b84846040516024016112ee929190611ece565b604051602081830303815290604052907bffffffffffffffffffffffffffffffffffffffffffffffffffffffff19166020820180517bffffffffffffffffffffffffffffffffffffffffffffffffffffffff8381831617835250505050611499565b505050565b61135d611561565b73ffffffffffffffffffffffffffffffffffffffff1661137b610e6b565b73ffffffffffffffffffffffffffffffffffffffff16146113d1576040517f08c379a00000000000000000000000000000000000000000000000000000000081526004016113c890612264565b60405180910390fd5b565b6000600160009054906101000a900473ffffffffffffffffffffffffffffffffffffffff16905081600160006101000a81548173ffffffffffffffffffffffffffffffffffffffff021916908373ffffffffffffffffffffffffffffffffffffffff1602179055508173ffffffffffffffffffffffffffffffffffffffff168173ffffffffffffffffffffffffffffffffffffffff167f8be0079c531659141344cd1fd0a4f28419497f9722a3daafe3b4186f6b6457e060405160405180910390a35050565b60006114fb826040518060400160405280602081526020017f5361666545524332303a206c6f772d6c6576656c2063616c6c206661696c65648152508573ffffffffffffffffffffffffffffffffffffffff166115699092919063ffffffff16565b905060008151148061151d57508080602001905181019061151c91906122b0565b5b61155c576040517f08c379a00000000000000000000000000000000000000000000000000000000081526004016115539061234f565b60405180910390fd5b505050565b600033905090565b60606115788484600085611581565b90509392505050565b6060824710156115c6576040517f08c379a00000000000000000000000000000000000000000000000000000000081526004016115bd906123e1565b60405180910390fd5b6000808673ffffffffffffffffffffffffffffffffffffffff1685876040516115ef919061243d565b60006040518083038185875af1925050503d806000811461162c576040519150601f19603f3d011682016040523d82523d6000602084013e611631565b606091505b50915091506116428783838761164e565b92505050949350505050565b606083156116b05760008351036116a857611668856116c3565b6116a7576040517f08c379a000000000000000000000000000000000000000000000000000000000815260040161169e906124a0565b60405180910390fd5b5b8290506116bb565b6116ba83836116e6565b5b949350505050565b6000808273ffffffffffffffffffffffffffffffffffffffff163b119050919050565b6000825111156116f95781518083602001fd5b806040517f08c379a000000000000000000000000000000000000000000000000000000000815260040161172d9190612504565b60405180910390fd5b600073ffffffffffffffffffffffffffffffffffffffff82169050919050565b6000819050919050565b600061177b61177661177184611736565b611756565b611736565b9050919050565b600061178d82611760565b9050919050565b600061179f82611782565b9050919050565b6117af81611794565b82525050565b60006020820190506117ca60008301846117a6565b92915050565b600080fd5b600080fd5b6000819050919050565b6117ed816117da565b81146117f857600080fd5b50565b60008135905061180a816117e4565b92915050565b600061181b82611736565b9050919050565b61182b81611810565b811461183657600080fd5b50565b60008135905061184881611822565b92915050565b600067ffffffffffffffff82169050919050565b61186b8161184e565b811461187657600080fd5b50565b60008135905061188881611862565b92915050565b6000806000606084860312156118a7576118a66117d0565b5b60006118b5868287016117fb565b93505060206118c686828701611839565b92505060406118d786828701611879565b9150509250925092565b600080fd5b600080fd5b600080fd5b60008083601f840112611906576119056118e1565b5b8235905067ffffffffffffffff811115611923576119226118e6565b5b60208301915083600182028301111561193f5761193e6118eb565b5b9250929050565b6000806020838503121561195d5761195c6117d0565b5b600083013567ffffffffffffffff81111561197b5761197a6117d5565b5b611987858286016118f0565b92509250509250929050565b6000602082840312156119a9576119a86117d0565b5b60006119b7848285016117fb565b91505092915050565b60008115159050919050565b6119d5816119c0565b82525050565b600081519050919050565b600082825260208201905092915050565b60005b83811015611a155780820151818401526020810190506119fa565b60008484015250505050565b6000601f19601f8301169050919050565b6000611a3d826119db565b611a4781856119e6565b9350611a578185602086016119f7565b611a6081611a21565b840191505092915050565b6000604082019050611a8060008301856119cc565b8181036020830152611a928184611a32565b90509392505050565b611aa481611810565b82525050565b6000602082019050611abf6000830184611a9b565b92915050565b6000602082019050611ada60008301846119cc565b92915050565b611ae9816117da565b82525050565b611af88161184e565b82525050565b600061010082019050611b14600083018b611ae0565b611b21602083018a611a9b565b611b2e6040830189611a9b565b611b3b6060830188611ae0565b611b486080830187611aef565b611b5560a0830186611aef565b611b6260c08301856119cc565b611b6f60e08301846119cc565b9998505050505050505050565b6000611b8782611782565b9050919050565b611b9781611b7c565b82525050565b6000602082019050611bb26000830184611b8e565b92915050565b6000602082019050611bcd6000830184611ae0565b92915050565b600060208284031215611be957611be86117d0565b5b6000611bf784828501611839565b91505092915050565b600081519050611c0f81611822565b92915050565b600060208284031215611c2b57611c2a6117d0565b5b6000611c3984828501611c00565b91505092915050565b600082825260208201905092915050565b7f4f6e6c7920626f72726f7765722063616e206372656174652072656e74616c00600082015250565b6000611c89601f83611c42565b9150611c9482611c53565b602082019050919050565b60006020820190508181036000830152611cb881611c7c565b9050919050565b7f43616e6e6f742072656e7420796f7572206f776e204e46540000000000000000600082015250565b6000611cf5601883611c42565b9150611d0082611cbf565b602082019050919050565b60006020820190508181036000830152611d2481611ce8565b9050919050565b600081519050611d3a816117e4565b92915050565b600060208284031215611d5657611d556117d0565b5b6000611d6484828501611d2b565b91505092915050565b7f4e487b7100000000000000000000000000000000000000000000000000000000600052601160045260246000fd5b6000611da7826117da565b9150611db2836117da565b9250828202611dc0816117da565b91508282048414831517611dd757611dd6611d6d565b5b5092915050565b6000611de9826117da565b91507fffffffffffffffffffffffffffffffffffffffffffffffffffffffffffffffff8203611e1b57611e1a611d6d565b5b600182019050919050565b6000611e318261184e565b9150611e3c8361184e565b9250828202611e4a8161184e565b9150808214611e5c57611e5b611d6d565b5b5092915050565b6000611e6e826117da565b9150611e79836117da565b9250828201905080821115611e9157611e90611d6d565b5b92915050565b6000606082019050611eac6000830186611ae0565b611eb96020830185611a9b565b611ec66040830184611ae0565b949350505050565b6000604082019050611ee36000830185611a9b565b611ef06020830184611ae0565b9392505050565b7f52656e74616c206e6f7420616374697665000000000000000000000000000000600082015250565b6000611f2d601183611c42565b9150611f3882611ef7565b602082019050919050565b60006020820190508181036000830152611f5c81611f20565b9050919050565b7f556e617574686f72697a65640000000000000000000000000000000000000000600082015250565b6000611f99600c83611c42565b9150611fa482611f63565b602082019050919050565b60006020820190508181036000830152611fc881611f8c565b9050919050565b7f5061796d656e7420616c72656164792072656c65617365640000000000000000600082015250565b6000612005601883611c42565b915061201082611fcf565b602082019050919050565b6000602082019050818103600083015261203481611ff8565b9050919050565b60006120468261184e565b91506120518361184e565b9250828201905067ffffffffffffffff81111561207157612070611d6d565b5b92915050565b7f52656e74616c20706572696f64206e6f7420656e646564000000000000000000600082015250565b60006120ad601783611c42565b91506120b882612077565b602082019050919050565b600060208201905081810360008301526120dc816120a0565b9050919050565b7f4f776e61626c653a206e6577206f776e657220697320746865207a65726f206160008201527f6464726573730000000000000000000000000000000000000000000000000000602082015250565b600061213f602683611c42565b915061214a826120e3565b604082019050919050565b6000602082019050818103600083015261216e81612132565b9050919050565b7f5265656e7472616e637947756172643a207265656e7472616e742063616c6c00600082015250565b60006121ab601f83611c42565b91506121b682612175565b602082019050919050565b600060208201905081810360008301526121da8161219e565b9050919050565b60006060820190506121f66000830186611a9b565b6122036020830185611a9b565b6122106040830184611ae0565b949350505050565b7f4f776e61626c653a2063616c6c6572206973206e6f7420746865206f776e6572600082015250565b600061224e602083611c42565b915061225982612218565b602082019050919050565b6000602082019050818103600083015261227d81612241565b9050919050565b61228d816119c0565b811461229857600080fd5b50565b6000815190506122aa81612284565b92915050565b6000602082840312156122c6576122c56117d0565b5b60006122d48482850161229b565b91505092915050565b7f5361666545524332303a204552433230206f7065726174696f6e20646964206e60008201527f6f74207375636365656400000000000000000000000000000000000000000000602082015250565b6000612339602a83611c42565b9150612344826122dd565b604082019050919050565b600060208201905081810360008301526123688161232c565b9050919050565b7f416464726573733a20696e73756666696369656e742062616c616e636520666f60008201527f722063616c6c0000000000000000000000000000000000000000000000000000602082015250565b60006123cb602683611c42565b91506123d68261236f565b604082019050919050565b600060208201905081810360008301526123fa816123be565b9050919050565b600081905092915050565b6000612417826119db565b6124218185612401565b93506124318185602086016119f7565b80840191505092915050565b6000612449828461240c565b915081905092915050565b7f416464726573733a2063616c6c20746f206e6f6e2d636f6e7472616374000000600082015250565b600061248a601d83611c42565b915061249582612454565b602082019050919050565b600060208201905081810360008301526124b98161247d565b9050919050565b600081519050919050565b60006124d6826124c0565b6124e08185611c42565b93506124f08185602086016119f7565b6124f981611a21565b840191505092915050565b6000602082019050818103600083015261251e81846124cb565b90509291505056fea2646970667358221220262c2a1886bb5171ebf8b7fa91c9744a3a8fa78811ec3f7998ffef7c94f8eae264736f6c63430008140033",
  "linkReferences": {},
  "deployedLinkReferences": {}
}