{
  "_format": "hh-sol-artifact-1",
  "contractName": "RentalEscrow",
  "sourceName": "contracts/RentalEscrow.sol",
  "abi": [
    {
      "inputs": [
        {
          "internalType": "address",
          "name": "_usdcTokenAddress",
          "type": "address"
        },
        {
          "internalType": "address",
          "name": "_accessNFTAddress",
          "type": "address"
        }
      ],
      "stateMutability": "nonpayable",
      "type": "constructor"
    },
    {
      "anonymous": false,
      "inputs": [
        {
          "indexed": true,
          "internalType": "address",
          "name": "previousOwner",
          "type": "address"
        },
        {
          "indexed": true,
          "internalType": "address",
          "name": "newOwner",
          "type": "address"
        }
      ],
      "name": "OwnershipTransferred",
      "type": "event"
    },
    {
      "anonymous": false,
      "inputs": [
        {
          "indexed": true,
          "internalType": "uint256",
          "name": "rentalId",
          "type": "uint256"
        },
        {
          "indexed": true,
          "internalType": "address",
          "name": "lender",
          "type": "address"
        },
        {
          "indexed": false,
          "internalType": "uint256",
          "name": "amount",
          "type": "uint256"
        }
      ],
      "name": "PaymentReleased",
      "type": "event"
    },
    {
      "anonymous": false,
      "inputs": [
        {
          "indexed": true,
          "internalType": "uint256",
          "name": "rentalId",
          "type": "uint256"
        },
        {
          "indexed": true,
          "internalType": "address",
          "name": "borrower",
          "type": "address"
        },
        {
          "indexed": false,
          "internalType": "uint256",
          "name": "refundAmount",
          "type": "uint256"
        }
      ],
      "name": "RentalCanceled",
      "type": "event"
    },
    {
      "anonymous": false,
      "inputs": [
        {
          "indexed": true,
          "internalType": "uint256",
          "name": "rentalId",
          "type": "uint256"
        },
        {
          "indexed": true,
          "internalType": "uint256",
          "name": "tokenId",
          "type": "uint256"
        },
        {
          "indexed": true,
          "internalType": "address",
          "name": "lender",
          "type": "address"
        },
        {
          "indexed": false,
          "internalType": "address",
          "name": "borrower",
          "type": "address"
        },
        {
          "indexed": false,
          "internalType": "uint256",
          "name": "amount",
          "type": "uint256"
        }
      ],
      "name": "RentalCreated",
      "type": "event"
    },
    {
      "inputs": [],
      "name": "accessNFT",
      "outputs": [
        {
          "internalType": "contract IAccessNFT",
          "name": "",
          "type": "address"
        }
      ],
      "stateMutability": "view",
      "type": "function"
    },
    {
      "inputs": [
        {
          "internalType": "uint256",
          "name": "rentalId",
          "type": "uint256"
        }
      ],
      "name": "cancelRental",
      "outputs": [],
      "stateMutability": "nonpayable",
      "type": "function"
    },
    {
      "inputs": [
        {
          "internalType": "uint256",
          "name": "rentalId",
          "type": "uint256"
        }
      ],
      "name": "checkRentalExpiry",
      "outputs": [
        {
          "internalType": "bool",
          "name": "",
          "type": "bool"
        }
      ],
      "stateMutability": "view",
      "type": "function"
    },
    {
      "inputs": [
        {
          "internalType": "bytes",
          "name": "checkData",
          "type": "bytes"
        }
      ],
      "name": "checkUpkeep",
      "outputs": [
        {
          "internalType": "bool",
          "name": "upkeepNeeded",
          "type": "bool"
        },
        {
          "internalType": "bytes",
          "name": "performData",
          "type": "bytes"
        }
      ],
      "stateMutability": "view",
      "type": "function"
    },
    {
      "inputs": [
        {
          "internalType": "uint256",
          "name": "tokenId",
          "type": "uint256"
        },
        {
          "internalType": "address",
          "name": "borrower",
          "type": "address"
        },
        {
          "internalType": "uint64",
          "name": "durationInMinutes",
          "type": "uint64"
        }
      ],
      "name": "createRental",
      "outputs": [],
      "stateMutability": "nonpayable",
      "type": "function"
    },
    {
      "inputs": [],
      "name": "owner",
      "outputs": [
        {
          "internalType": "address",
          "name": "",
          "type": "address"
        }
      ],
      "stateMutability": "view",
      "type": "function"
    },
    {
      "inputs": [
        {
          "internalType": "bytes",
          "name": "performData",
          "type": "bytes"
        }
      ],
      "name": "performUpkeep",
      "outputs": [],
      "stateMutability": "nonpayable",
      "type": "function"
    },
    {
      "inputs": [
        {
          "internalType": "uint256",
          "name": "rentalId",
          "type": "uint256"
        }
      ],
      "name": "releasePayment",
      "outputs": [],
      "stateMutability": "nonpayable",
      "type": "function"
    },
    {
      "inputs": [],
      "name": "renounceOwnership",
      "outputs": [],
      "stateMutability": "nonpayable",
      "type": "function"
    },
    {
      "inputs": [
        {
          "internalType": "uint256",
          "name": "",
          "type": "uint256"
        }
      ],
      "name": "rentalIds",
      "outputs": [
        {
          "internalType": "uint256",
          "name": "",
          "type": "uint256"
        }
      ],
      "stateMutability": "view",
      "type": "function"
    },
    {
      "inputs": [
        {
          "internalType": "uint256",
          "name": "",
          "type": "uint256"
        }
      ],
      "name": "rentals",
      "outputs": [
        {
          "internalType": "uint256",
          "name": "tokenId",
          "type": "uint256"
        },
        {
          "internalType": "address",
          "name": "lender",
          "type": "address"
        },
        {
          "internalType": "address",
          "name": "borrower",
          "type": "address"
        },
        {
          "internalType": "uint256",
          "name": "amount",
          "type": "uint256"
        },
        {
          "internalType": "uint64",
          "name": "startTime",
          "type": "uint64"
        },
        {
          "internalType": "uint64",
          "name": "duration",
          "type": "uint64"
        },
        {
          "internalType": "bool",
          "name": "isActive",
          "type": "bool"
        },
        {
          "internalType": "bool",
          "name": "isPaidOut",
          "type": "bool"
        }
      ],
      "stateMutability": "view",
      "type": "function"
    },
    {
      "inputs": [
        {
          "internalType": "address",
          "name": "newOwner",
          "type": "address"
        }
      ],
      "name": "transferOwnership",
      "outputs": [],
      "stateMutability": "nonpayable",
      "type": "function"
    },
    {
      "inputs": [],
      "name": "usdcToken",
      "outputs": [
        {
          "internalType": "contract IERC20",
          "name": "",
          "type": "address"
        }
      ],
      "stateMutability": "view",
      "type": "function"
    }
  ],
  "bytecode": "0x60806040523480156200001157600080fd5b50604051620026fa380380620026fa833981810160405281019062000037919062000221565b60016000819055506200005f62000053620000e960201b60201c565b620000f160201b60201c565b81600260006101000a81548173ffffffffffffffffffffffffffffffffffffffff021916908373ffffffffffffffffffffffffffffffffffffffff16021790555080600360006101000a81548173ffffffffffffffffffffffffffffffffffffffff021916908373ffffffffffffffffffffffffffffffffffffffff160217905550505062000268565b600033905090565b6000600160009054906101000a900473ffffffffffffffffffffffffffffffffffffffff16905081600160006101000a81548173ffffffffffffffffffffffffffffffffffffffff021916908373ffffffffffffffffffffffffffffffffffffffff1602179055508173ffffffffffffffffffffffffffffffffffffffff168173ffffffffffffffffffffffffffffffffffffffff167f8be0079c531659141344cd1fd0a4f28419497f9722a3daafe3b4186f6b6457e060405160405180910390a35050565b600080fd5b600073ffffffffffffffffffffffffffffffffffffffff82169050919050565b6000620001e982620001bc565b9050919050565b620001fb81620001dc565b81146200020757600080fd5b50565b6000815190506200021b81620001f0565b92915050565b600080604083850312156200023b576200023a620001b7565b5b60006200024b858286016200020a565b92505060206200025e858286016200020a565b9150509250929050565b61248280620002786000396000f3fe608060405234801561001057600080fd5b50600436106100cf5760003560e01c806388685cd91161008c578063af94a1d111610066578063af94a1d1146101eb578063b9352c5114610222578063ebfa74c914610240578063f2fde38b14610270576100cf565b806388685cd9146101815780638da5cb5b1461019d578063a47626b5146101bb576100cf565b806311eac855146100d45780631ce305f0146100f25780634585e33b1461010e5780635e0dacb41461012a5780636e04ff0d14610146578063715018a614610177575b600080fd5b6100dc61028c565b6040516100e99190611747565b60405180910390f35b61010c60048036038101906101079190611820565b6102b2565b005b610128600480360381019061012391906118d8565b6107f5565b005b610144600480360381019061013f9190611925565b6107f9565b005b610160600480360381019061015b91906118d8565b610afd565b60405161016e9291906119fd565b60405180910390f35b61017f610b53565b005b61019b60048036038101906101969190611925565b610b67565b005b6101a5610dfd565b6040516101b29190611a3c565b60405180910390f35b6101d560048036038101906101d09190611925565b610e27565b6040516101e29190611a57565b60405180910390f35b61020560048036038101906102009190611925565b610ff4565b604051610219989796959493929190611a90565b60405180910390f35b61022a6110be565b6040516102379190611b2f565b60405180910390f35b61025a60048036038101906102559190611925565b6110e4565b6040516102679190611b4a565b60405180910390f35b61028a60048036038101906102859190611b65565b6110fc565b005b600260009054906101000a900473ffffffffffffffffffffffffffffffffffffffff1681565b6102ba61117f565b6000600360009054906101000a900473ffffffffffffffffffffffffffffffffffffffff1673ffffffffffffffffffffffffffffffffffffffff16636352211e856040518263ffffffff1660e01b81526004016103179190611b4a565b602060405180830381865afa158015610334573d6000803e3d6000fd5b505050506040513d601f19601f820116820180604052508101906103589190611ba7565b90508073ffffffffffffffffffffffffffffffffffffffff163373ffffffffffffffffffffffffffffffffffffffff16146103c8576040517f08c379a00000000000000000000000000000000000000000000000000000000081526004016103bf90611c31565b60405180910390fd5b6000600360009054906101000a900473ffffffffffffffffffffffffffffffffffffffff1673ffffffffffffffffffffffffffffffffffffffff1663c474a946866040518263ffffffff1660e01b81526004016104259190611b4a565b602060405180830381865afa158015610442573d6000803e3d6000fd5b505050506040513d601f19601f820116820180604052508101906104669190611c66565b905060008367ffffffffffffffff16826104809190611cc2565b905060006006600081548092919061049790611d04565b9190505590506040518061010001604052808881526020018573ffffffffffffffffffffffffffffffffffffffff1681526020018773ffffffffffffffffffffffffffffffffffffffff1681526020018381526020014267ffffffffffffffff1681526020018667ffffffffffffffff16815260200160011515815260200160001515815250600460008381526020019081526020016000206000820151816000015560208201518160010160006101000a81548173ffffffffffffffffffffffffffffffffffffffff021916908373ffffffffffffffffffffffffffffffffffffffff16021790555060408201518160020160006101000a81548173ffffffffffffffffffffffffffffffffffffffff021916908373ffffffffffffffffffffffffffffffffffffffff1602179055506060820151816003015560808201518160040160006101000a81548167ffffffffffffffff021916908367ffffffffffffffff16021790555060a08201518160040160086101000a81548167ffffffffffffffff021916908367ffffffffffffffff16021790555060c08201518160040160106101000a81548160ff02191690831515021790555060e08201518160040160116101000a81548160ff0219169083151502179055509050508060056000898152602001908152602001600020819055506106da863084600260009054906101000a900473ffffffffffffffffffffffffffffffffffffffff1673ffffffffffffffffffffffffffffffffffffffff166111ce909392919063ffffffff16565b6000603c866106e99190611d4c565b67ffffffffffffffff16426106fe9190611d89565b9050600360009054906101000a900473ffffffffffffffffffffffffffffffffffffffff1673ffffffffffffffffffffffffffffffffffffffff16631b8a910d8989846040518463ffffffff1660e01b815260040161075f93929190611dbd565b600060405180830381600087803b15801561077957600080fd5b505af115801561078d573d6000803e3d6000fd5b505050508473ffffffffffffffffffffffffffffffffffffffff1688837f028c238b0e01f5cea7b18205312cd7eca9240d143640931f45c4e56e75e6d46d8a876040516107db929190611df4565b60405180910390a450505050506107f0611257565b505050565b5050565b61080161117f565b60006004600083815260200190815260200160002090508060040160109054906101000a900460ff16610869576040517f08c379a000000000000000000000000000000000000000000000000000000000815260040161086090611e69565b60405180910390fd5b8060020160009054906101000a900473ffffffffffffffffffffffffffffffffffffffff1673ffffffffffffffffffffffffffffffffffffffff163373ffffffffffffffffffffffffffffffffffffffff16148061091657508060010160009054906101000a900473ffffffffffffffffffffffffffffffffffffffff1673ffffffffffffffffffffffffffffffffffffffff163373ffffffffffffffffffffffffffffffffffffffff16145b610955576040517f08c379a000000000000000000000000000000000000000000000000000000000815260040161094c90611ed5565b60405180910390fd5b600360009054906101000a900473ffffffffffffffffffffffffffffffffffffffff1673ffffffffffffffffffffffffffffffffffffffff16635113edc582600001546040518263ffffffff1660e01b81526004016109b49190611b4a565b600060405180830381600087803b1580156109ce57600080fd5b505af11580156109e2573d6000803e3d6000fd5b5050505060008160030154905060008260040160106101000a81548160ff021916908315150217905550610a7d8260020160009054906101000a900473ffffffffffffffffffffffffffffffffffffffff1682600260009054906101000a900473ffffffffffffffffffffffffffffffffffffffff1673ffffffffffffffffffffffffffffffffffffffff166112619092919063ffffffff16565b8160020160009054906101000a900473ffffffffffffffffffffffffffffffffffffffff1673ffffffffffffffffffffffffffffffffffffffff16837fca252e893dc6af8dc22e1b911eaf21aba150aa2b5c055956d82dc1643e20f07a83604051610ae89190611b4a565b60405180910390a35050610afa611257565b50565b600060606000915083838080601f016020809104026020016040519081016040528093929190818152602001838380828437600081840152601f19601f8201169050808301925050505050505090509250929050565b610b5b6112e7565b610b656000611365565b565b610b6f6112e7565b610b7761117f565b60006004600083815260200190815260200160002090508060040160109054906101000a900460ff16610bdf576040517f08c379a0000000000000000000000000000000000000000000000000000000008152600401610bd690611e69565b60405180910390fd5b8060040160119054906101000a900460ff1615610c31576040517f08c379a0000000000000000000000000000000000000000000000000000000008152600401610c2890611f41565b60405180910390fd5b6000603c8260040160089054906101000a900467ffffffffffffffff16610c589190611d4c565b8260040160009054906101000a900467ffffffffffffffff16610c7b9190611f61565b67ffffffffffffffff16905080421015610cca576040517f08c379a0000000000000000000000000000000000000000000000000000000008152600401610cc190611fe9565b60405180910390fd5b60018260040160116101000a81548160ff02191690831515021790555060008260040160106101000a81548160ff021916908315150217905550610d798260010160009054906101000a900473ffffffffffffffffffffffffffffffffffffffff168360030154600260009054906101000a900473ffffffffffffffffffffffffffffffffffffffff1673ffffffffffffffffffffffffffffffffffffffff166112619092919063ffffffff16565b8160010160009054906101000a900473ffffffffffffffffffffffffffffffffffffffff1673ffffffffffffffffffffffffffffffffffffffff16837f21d71db5be59bb9fa133895586b7404307dd33fb93b16db09dc6f1d9d7d231b08460030154604051610de89190611b4a565b60405180910390a35050610dfa611257565b50565b6000600160009054906101000a900473ffffffffffffffffffffffffffffffffffffffff16905090565b6000806004600084815260200190815260200160002060405180610100016040529081600082015481526020016001820160009054906101000a900473ffffffffffffffffffffffffffffffffffffffff1673ffffffffffffffffffffffffffffffffffffffff1673ffffffffffffffffffffffffffffffffffffffff1681526020016002820160009054906101000a900473ffffffffffffffffffffffffffffffffffffffff1673ffffffffffffffffffffffffffffffffffffffff1673ffffffffffffffffffffffffffffffffffffffff168152602001600382015481526020016004820160009054906101000a900467ffffffffffffffff1667ffffffffffffffff1667ffffffffffffffff1681526020016004820160089054906101000a900467ffffffffffffffff1667ffffffffffffffff1667ffffffffffffffff1681526020016004820160109054906101000a900460ff161515151581526020016004820160119054906101000a900460ff16151515158152505090508060c00151610fb8576001915050610fef565b6000603c8260a00151610fcb9190611d4c565b8260800151610fda9190611f61565b67ffffffffffffffff16905080421015925050505b919050565b60046020528060005260406000206000915090508060000154908060010160009054906101000a900473ffffffffffffffffffffffffffffffffffffffff16908060020160009054906101000a900473ffffffffffffffffffffffffffffffffffffffff16908060030154908060040160009054906101000a900467ffffffffffffffff16908060040160089054906101000a900467ffffffffffffffff16908060040160109054906101000a900460ff16908060040160119054906101000a900460ff16905088565b600360009054906101000a900473ffffffffffffffffffffffffffffffffffffffff1681565b60056020528060005260406000206000915090505481565b6111046112e7565b600073ffffffffffffffffffffffffffffffffffffffff168173ffffffffffffffffffffffffffffffffffffffff1603611173576040517f08c379a000000000000000000000000000000000000000000000000000000000815260040161116a9061207b565b60405180910390fd5b61117c81611365565b50565b6002600054036111c4576040517f08c379a00000000000000000000000000000000000000000000000000000000081526004016111bb906120e7565b60405180910390fd5b6002600081905550565b611251846323b872dd60e01b8585856040516024016111ef93929190612107565b604051602081830303815290604052907bffffffffffffffffffffffffffffffffffffffffffffffffffffffff19166020820180517bffffffffffffffffffffffffffffffffffffffffffffffffffffffff838183161783525050505061142b565b50505050565b6001600081905550565b6112e28363a9059cbb60e01b8484604051602401611280929190611df4565b604051602081830303815290604052907bffffffffffffffffffffffffffffffffffffffffffffffffffffffff19166020820180517bffffffffffffffffffffffffffffffffffffffffffffffffffffffff838183161783525050505061142b565b505050565b6112ef6114f3565b73ffffffffffffffffffffffffffffffffffffffff1661130d610dfd565b73ffffffffffffffffffffffffffffffffffffffff1614611363576040517f08c379a000000000000000000000000000000000000000000000000000000000815260040161135a9061218a565b60405180910390fd5b565b6000600160009054906101000a900473ffffffffffffffffffffffffffffffffffffffff16905081600160006101000a81548173ffffffffffffffffffffffffffffffffffffffff021916908373ffffffffffffffffffffffffffffffffffffffff1602179055508173ffffffffffffffffffffffffffffffffffffffff168173ffffffffffffffffffffffffffffffffffffffff167f8be0079c531659141344cd1fd0a4f28419497f9722a3daafe3b4186f6b6457e060405160405180910390a35050565b600061148d826040518060400160405280602081526020017f5361666545524332303a206c6f772d6c6576656c2063616c6c206661696c65648152508573ffffffffffffffffffffffffffffffffffffffff166114fb9092919063ffffffff16565b90506000815114806114af5750808060200190518101906114ae91906121d6565b5b6114ee576040517f08c379a00000000000000000000000000000000000000000000000000000000081526004016114e590612275565b60405180910390fd5b505050565b600033905090565b606061150a8484600085611513565b90509392505050565b606082471015611558576040517f08c379a000000000000000000000000000000000000000000000000000000000815260040161154f90612307565b60405180910390fd5b6000808673ffffffffffffffffffffffffffffffffffffffff1685876040516115819190612363565b60006040518083038185875af1925050503d80600081146115be576040519150601f19603f3d011682016040523d82523d6000602084013e6115c3565b606091505b50915091506115d4878383876115e0565b92505050949350505050565b6060831561164257600083510361163a576115fa85611655565b611639576040517f08c379a0000000000000000000000000000000000000000000000000000000008152600401611630906123c6565b60405180910390fd5b5b82905061164d565b61164c8383611678565b5b949350505050565b6000808273ffffffffffffffffffffffffffffffffffffffff163b119050919050565b60008251111561168b5781518083602001fd5b806040517f08c379a00000000000000000000000000000000000000000000000000000000081526004016116bf919061242a565b60405180910390fd5b600073ffffffffffffffffffffffffffffffffffffffff82169050919050565b6000819050919050565b600061170d611708611703846116c8565b6116e8565b6116c8565b9050919050565b600061171f826116f2565b9050919050565b600061173182611714565b9050919050565b61174181611726565b82525050565b600060208201905061175c6000830184611738565b92915050565b600080fd5b600080fd5b6000819050919050565b61177f8161176c565b811461178a57600080fd5b50565b60008135905061179c81611776565b92915050565b60006117ad826116c8565b9050919050565b6117bd816117a2565b81146117c857600080fd5b50565b6000813590506117da816117b4565b92915050565b600067ffffffffffffffff82169050919050565b6117fd816117e0565b811461180857600080fd5b50565b60008135905061181a816117f4565b92915050565b60008060006060848603121561183957611838611762565b5b60006118478682870161178d565b9350506020611858868287016117cb565b92505060406118698682870161180b565b9150509250925092565b600080fd5b600080fd5b600080fd5b60008083601f84011261189857611897611873565b5b8235905067ffffffffffffffff8111156118b5576118b4611878565b5b6020830191508360018202830111156118d1576118d061187d565b5b9250929050565b600080602083850312156118ef576118ee611762565b5b600083013567ffffffffffffffff81111561190d5761190c611767565b5b61191985828601611882565b92509250509250929050565b60006020828403121561193b5761193a611762565b5b60006119498482850161178d565b91505092915050565b60008115159050919050565b61196781611952565b82525050565b600081519050919050565b600082825260208201905092915050565b60005b838110156119a757808201518184015260208101905061198c565b60008484015250505050565b6000601f19601f8301169050919050565b60006119cf8261196d565b6119d98185611978565b93506119e9818560208601611989565b6119f2816119b3565b840191505092915050565b6000604082019050611a12600083018561195e565b8181036020830152611a2481846119c4565b90509392505050565b611a36816117a2565b82525050565b6000602082019050611a516000830184611a2d565b92915050565b6000602082019050611a6c600083018461195e565b92915050565b611a7b8161176c565b82525050565b611a8a816117e0565b82525050565b600061010082019050611aa6600083018b611a72565b611ab3602083018a611a2d565b611ac06040830189611a2d565b611acd6060830188611a72565b611ada6080830187611a81565b611ae760a0830186611a81565b611af460c083018561195e565b611b0160e083018461195e565b9998505050505050505050565b6000611b1982611714565b9050919050565b611b2981611b0e565b82525050565b6000602082019050611b446000830184611b20565b92915050565b6000602082019050611b5f6000830184611a72565b92915050565b600060208284031215611b7b57611b7a611762565b5b6000611b89848285016117cb565b91505092915050565b600081519050611ba1816117b4565b92915050565b600060208284031215611bbd57611bbc611762565b5b6000611bcb84828501611b92565b91505092915050565b600082825260208201905092915050565b7f4f6e6c79206c656e6465722063616e206372656174652072656e74616c000000600082015250565b6000611c1b601d83611bd4565b9150611c2682611be5565b602082019050919050565b60006020820190508181036000830152611c4a81611c0e565b9050919050565b600081519050611c6081611776565b92915050565b600060208284031215611c7c57611c7b611762565b5b6000611c8a84828501611c51565b91505092915050565b7f4e487b7100000000000000000000000000000000000000000000000000000000600052601160045260246000fd5b6000611ccd8261176c565b9150611cd88361176c565b9250828202611ce68161176c565b91508282048414831517611cfd57611cfc611c93565b5b5092915050565b6000611d0f8261176c565b91507fffffffffffffffffffffffffffffffffffffffffffffffffffffffffffffffff8203611d4157611d40611c93565b5b600182019050919050565b6000611d57826117e0565b9150611d62836117e0565b9250828202611d70816117e0565b9150808214611d8257611d81611c93565b5b5092915050565b6000611d948261176c565b9150611d9f8361176c565b9250828201905080821115611db757611db6611c93565b5b92915050565b6000606082019050611dd26000830186611a72565b611ddf6020830185611a2d565b611dec6040830184611a72565b949350505050565b6000604082019050611e096000830185611a2d565b611e166020830184611a72565b9392505050565b7f52656e74616c206e6f7420616374697665000000000000000000000000000000600082015250565b6000611e53601183611bd4565b9150611e5e82611e1d565b602082019050919050565b60006020820190508181036000830152611e8281611e46565b9050919050565b7f556e617574686f72697a65640000000000000000000000000000000000000000600082015250565b6000611ebf600c83611bd4565b9150611eca82611e89565b602082019050919050565b60006020820190508181036000830152611eee81611eb2565b9050919050565b7f5061796d656e7420616c72656164792072656c65617365640000000000000000600082015250565b6000611f2b601883611bd4565b9150611f3682611ef5565b602082019050919050565b60006020820190508181036000830152611f5a81611f1e565b9050919050565b6000611f6c826117e0565b9150611f77836117e0565b9250828201905067ffffffffffffffff811115611f9757611f96611c93565b5b92915050565b7f52656e74616c20706572696f64206e6f7420656e646564000000000000000000600082015250565b6000611fd3601783611bd4565b9150611fde82611f9d565b602082019050919050565b6000602082019050818103600083015261200281611fc6565b9050919050565b7f4f776e61626c653a206e6577206f776e657220697320746865207a65726f206160008201527f6464726573730000000000000000000000000000000000000000000000000000602082015250565b6000612065602683611bd4565b915061207082612009565b604082019050919050565b6000602082019050818103600083015261209481612058565b9050919050565b7f5265656e7472616e637947756172643a207265656e7472616e742063616c6c00600082015250565b60006120d1601f83611bd4565b91506120dc8261209b565b602082019050919050565b60006020820190508181036000830152612100816120c4565b9050919050565b600060608201905061211c6000830186611a2d565b6121296020830185611a2d565b6121366040830184611a72565b949350505050565b7f4f776e61626c653a2063616c6c6572206973206e6f7420746865206f776e6572600082015250565b6000612174602083611bd4565b915061217f8261213e565b602082019050919050565b600060208201905081810360008301526121a381612167565b9050919050565b6121b381611952565b81146121be57600080fd5b50565b6000815190506121d0816121aa565b92915050565b6000602082840312156121ec576121eb611762565b5b60006121fa848285016121c1565b91505092915050565b7f5361666545524332303a204552433230206f7065726174696f6e20646964206e60008201527f6f74207375636365656400000000000000000000000000000000000000000000602082015250565b600061225f602a83611bd4565b915061226a82612203565b604082019050919050565b6000602082019050818103600083015261228e81612252565b9050919050565b7f416464726573733a20696e73756666696369656e742062616c616e636520666f60008201527f722063616c6c0000000000000000000000000000000000000000000000000000602082015250565b60006122f1602683611bd4565b91506122fc82612295565b604082019050919050565b60006020820190508181036000830152612320816122e4565b9050919050565b600081905092915050565b600061233d8261196d565b6123478185612327565b9350612357818560208601611989565b80840191505092915050565b600061236f8284612332565b915081905092915050565b7f416464726573733a2063616c6c20746f206e6f6e2d636f6e7472616374000000600082015250565b60006123b0601d83611bd4565b91506123bb8261237a565b602082019050919050565b600060208201905081810360008301526123df816123a3565b9050919050565b600081519050919050565b60006123fc826123e6565b6124068185611bd4565b9350612416818560208601611989565b61241f816119b3565b840191505092915050565b6000602082019050818103600083015261244481846123f1565b90509291505056fea264697066735822122061dfd123fbd5a2e0374c250659578d4b52cd13873d344e78b9253b7280dddb7564736f6c63430008140033",
  "linkReferences": {},
  "deployedLinkReferences": {}
}