{
  "_format": "hh-sol-artifact-1",
  "contractName": "AccessNFT",
  "sourceName": "contracts/AccessNFT.sol",
  "abi": [
    {
      "inputs": [],
      "stateMutability": "nonpayable",
      "type": "constructor"
    },
    {
      "anonymous": false,
      "inputs": [
        {
          "indexed": true,
          "internalType": "address",
          "name": "owner",
          "type": "address"
        },
        {
          "indexed": true,
          "internalType": "address",
          "name": "approved",
          "type": "address"
        },
        {
          "indexed": true,
          "internalType": "uint256",
          "name": "tokenId",
          "type": "uint256"
        }
      ],
      "name": "Approval",
      "type": "event"
    },
    {
      "anonymous": false,
      "inputs": [
        {
          "indexed": true,
          "internalType": "address",
          "name": "owner",
          "type": "address"
        },
        {
          "indexed": true,
          "internalType": "address",
          "name": "operator",
          "type": "address"
        },
        {
          "indexed": false,
          "internalType": "bool",
          "name": "approved",
          "type": "bool"
        }
      ],
      "name": "ApprovalForAll",
      "type": "event"
    },
    {
      "anonymous": false,
      "inputs": [
        {
          "indexed": false,
          "internalType": "uint256",
          "name": "_fromTokenId",
          "type": "uint256"
        },
        {
          "indexed": false,
          "internalType": "uint256",
          "name": "_toTokenId",
          "type": "uint256"
        }
      ],
      "name": "BatchMetadataUpdate",
      "type": "event"
    },
    {
      "anonymous": false,
      "inputs": [
        {
          "indexed": true,
          "internalType": "uint256",
          "name": "tokenId",
          "type": "uint256"
        },
        {
          "indexed": true,
          "internalType": "address",
          "name": "user",
          "type": "address"
        },
        {
          "indexed": false,
          "internalType": "uint256",
          "name": "expires",
          "type": "uint256"
        }
      ],
      "name": "Borrowed",
      "type": "event"
    },
    {
      "anonymous": false,
      "inputs": [
        {
          "indexed": false,
          "internalType": "uint256",
          "name": "_tokenId",
          "type": "uint256"
        }
      ],
      "name": "MetadataUpdate",
      "type": "event"
    },
    {
      "anonymous": false,
      "inputs": [
        {
          "indexed": true,
          "internalType": "uint256",
          "name": "tokenId",
          "type": "uint256"
        },
        {
          "indexed": true,
          "internalType": "address",
          "name": "owner",
          "type": "address"
        },
        {
          "indexed": false,
          "internalType": "string",
          "name": "subscriptionName",
          "type": "string"
        }
      ],
      "name": "Minted",
      "type": "event"
    },
    {
      "anonymous": false,
      "inputs": [
        {
          "indexed": true,
          "internalType": "address",
          "name": "previousOwner",
          "type": "address"
        },
        {
          "indexed": true,
          "internalType": "address",
          "name": "newOwner",
          "type": "address"
        }
      ],
      "name": "OwnershipTransferred",
      "type": "event"
    },
    {
      "anonymous": false,
      "inputs": [
        {
          "indexed": true,
          "internalType": "uint256",
          "name": "tokenId",
          "type": "uint256"
        },
        {
          "indexed": true,
          "internalType": "address",
          "name": "user",
          "type": "address"
        }
      ],
      "name": "Revoked",
      "type": "event"
    },
    {
      "anonymous": false,
      "inputs": [
        {
          "indexed": true,
          "internalType": "address",
          "name": "from",
          "type": "address"
        },
        {
          "indexed": true,
          "internalType": "address",
          "name": "to",
          "type": "address"
        },
        {
          "indexed": true,
          "internalType": "uint256",
          "name": "tokenId",
          "type": "uint256"
        }
      ],
      "name": "Transfer",
      "type": "event"
    },
    {
      "inputs": [
        {
          "internalType": "address",
          "name": "to",
          "type": "address"
        },
        {
          "internalType": "uint256",
          "name": "tokenId",
          "type": "uint256"
        }
      ],
      "name": "approve",
      "outputs": [],
      "stateMutability": "nonpayable",
      "type": "function"
    },
    {
      "inputs": [
        {
          "internalType": "address",
          "name": "owner",
          "type": "address"
        }
      ],
      "name": "balanceOf",
      "outputs": [
        {
          "internalType": "uint256",
          "name": "",
          "type": "uint256"
        }
      ],
      "stateMutability": "view",
      "type": "function"
    },
    {
      "inputs": [
        {
          "internalType": "uint256",
          "name": "tokenId",
          "type": "uint256"
        }
      ],
      "name": "getApproved",
      "outputs": [
        {
          "internalType": "address",
          "name": "",
          "type": "address"
        }
      ],
      "stateMutability": "view",
      "type": "function"
    },
    {
      "inputs": [
        {
          "internalType": "uint256",
          "name": "tokenId",
          "type": "uint256"
        }
      ],
      "name": "getSubscriptionName",
      "outputs": [
        {
          "internalType": "string",
          "name": "",
          "type": "string"
        }
      ],
      "stateMutability": "view",
      "type": "function"
    },
    {
      "inputs": [
        {
          "internalType": "address",
          "name": "owner",
          "type": "address"
        },
        {
          "internalType": "address",
          "name": "operator",
          "type": "address"
        }
      ],
      "name": "isApprovedForAll",
      "outputs": [
        {
          "internalType": "bool",
          "name": "",
          "type": "bool"
        }
      ],
      "stateMutability": "view",
      "type": "function"
    },
    {
      "inputs": [
        {
          "internalType": "address",
          "name": "to",
          "type": "address"
        },
        {
          "internalType": "string",
          "name": "uri",
          "type": "string"
        },
        {
          "internalType": "string",
          "name": "subName",
          "type": "string"
        },
        {
          "internalType": "uint256",
          "name": "pricePerMinute",
          "type": "uint256"
        }
      ],
      "name": "mintNFT",
      "outputs": [
        {
          "internalType": "uint256",
          "name": "",
          "type": "uint256"
        }
      ],
      "stateMutability": "nonpayable",
      "type": "function"
    },
    {
      "inputs": [],
      "name": "name",
      "outputs": [
        {
          "internalType": "string",
          "name": "",
          "type": "string"
        }
      ],
      "stateMutability": "view",
      "type": "function"
    },
    {
      "inputs": [],
      "name": "owner",
      "outputs": [
        {
          "internalType": "address",
          "name": "",
          "type": "address"
        }
      ],
      "stateMutability": "view",
      "type": "function"
    },
    {
      "inputs": [
        {
          "internalType": "uint256",
          "name": "tokenId",
          "type": "uint256"
        }
      ],
      "name": "ownerOf",
      "outputs": [
        {
          "internalType": "address",
          "name": "",
          "type": "address"
        }
      ],
      "stateMutability": "view",
      "type": "function"
    },
    {
      "inputs": [],
      "name": "renounceOwnership",
      "outputs": [],
      "stateMutability": "nonpayable",
      "type": "function"
    },
    {
      "inputs": [],
      "name": "rentalEscrow",
      "outputs": [
        {
          "internalType": "address",
          "name": "",
          "type": "address"
        }
      ],
      "stateMutability": "view",
      "type": "function"
    },
    {
      "inputs": [
        {
          "internalType": "uint256",
          "name": "tokenId",
          "type": "uint256"
        }
      ],
      "name": "rentalPrice",
      "outputs": [
        {
          "internalType": "uint256",
          "name": "",
          "type": "uint256"
        }
      ],
      "stateMutability": "view",
      "type": "function"
    },
    {
      "inputs": [
        {
          "internalType": "uint256",
          "name": "tokenId",
          "type": "uint256"
        }
      ],
      "name": "revokeUser",
      "outputs": [],
      "stateMutability": "nonpayable",
      "type": "function"
    },
    {
      "inputs": [
        {
          "internalType": "address",
          "name": "from",
          "type": "address"
        },
        {
          "internalType": "address",
          "name": "to",
          "type": "address"
        },
        {
          "internalType": "uint256",
          "name": "tokenId",
          "type": "uint256"
        }
      ],
      "name": "safeTransferFrom",
      "outputs": [],
      "stateMutability": "nonpayable",
      "type": "function"
    },
    {
      "inputs": [
        {
          "internalType": "address",
          "name": "from",
          "type": "address"
        },
        {
          "internalType": "address",
          "name": "to",
          "type": "address"
        },
        {
          "internalType": "uint256",
          "name": "tokenId",
          "type": "uint256"
        },
        {
          "internalType": "bytes",
          "name": "data",
          "type": "bytes"
        }
      ],
      "name": "safeTransferFrom",
      "outputs": [],
      "stateMutability": "nonpayable",
      "type": "function"
    },
    {
      "inputs": [
        {
          "internalType": "address",
          "name": "operator",
          "type": "address"
        },
        {
          "internalType": "bool",
          "name": "approved",
          "type": "bool"
        }
      ],
      "name": "setApprovalForAll",
      "outputs": [],
      "stateMutability": "nonpayable",
      "type": "function"
    },
    {
      "inputs": [
        {
          "internalType": "address",
          "name": "_rentalEscrow",
          "type": "address"
        }
      ],
      "name": "setRentalEscrow",
      "outputs": [],
      "stateMutability": "nonpayable",
      "type": "function"
    },
    {
      "inputs": [
        {
          "internalType": "uint256",
          "name": "tokenId",
          "type": "uint256"
        },
        {
          "internalType": "address",
          "name": "user",
          "type": "address"
        },
        {
          "internalType": "uint256",
          "name": "expires",
          "type": "uint256"
        }
      ],
      "name": "setUser",
      "outputs": [],
      "stateMutability": "nonpayable",
      "type": "function"
    },
    {
      "inputs": [
        {
          "internalType": "uint256",
          "name": "tokenId",
          "type": "uint256"
        }
      ],
      "name": "subscriptionName",
      "outputs": [
        {
          "internalType": "string",
          "name": "",
          "type": "string"
        }
      ],
      "stateMutability": "view",
      "type": "function"
    },
    {
      "inputs": [
        {
          "internalType": "bytes4",
          "name": "interfaceId",
          "type": "bytes4"
        }
      ],
      "name": "supportsInterface",
      "outputs": [
        {
          "internalType": "bool",
          "name": "",
          "type": "bool"
        }
      ],
      "stateMutability": "view",
      "type": "function"
    },
    {
      "inputs": [],
      "name": "symbol",
      "outputs": [
        {
          "internalType": "string",
          "name": "",
          "type": "string"
        }
      ],
      "stateMutability": "view",
      "type": "function"
    },
    {
      "inputs": [
        {
          "internalType": "uint256",
          "name": "tokenId",
          "type": "uint256"
        }
      ],
      "name": "tokenURI",
      "outputs": [
        {
          "internalType": "string",
          "name": "",
          "type": "string"
        }
      ],
      "stateMutability": "view",
      "type": "function"
    },
    {
      "inputs": [
        {
          "internalType": "address",
          "name": "from",
          "type": "address"
        },
        {
          "internalType": "address",
          "name": "to",
          "type": "address"
        },
        {
          "internalType": "uint256",
          "name": "tokenId",
          "type": "uint256"
        }
      ],
      "name": "transferFrom",
      "outputs": [],
      "stateMutability": "nonpayable",
      "type": "function"
    },
    {
      "inputs": [
        {
          "internalType": "address",
          "name": "newOwner",
          "type": "address"
        }
      ],
      "name": "transferOwnership",
      "outputs": [],
      "stateMutability": "nonpayable",
      "type": "function"
    },
    {
      "inputs": [
        {
          "internalType": "uint256",
          "name": "tokenId",
          "type": "uint256"
        }
      ],
      "name": "userExpires",
      "outputs": [
        {
          "internalType": "uint256",
          "name": "",
          "type": "uint256"
        }
      ],
      "stateMutability": "view",
      "type": "function"
    },
    {
      "inputs": [
        {
          "internalType": "uint256",
          "name": "tokenId",
          "type": "uint256"
        }
      ],
      "name": "userOf",
      "outputs": [
        {
          "internalType": "address",
          "name": "",
          "type": "address"
        }
      ],
      "stateMutability": "view",
      "type": "function"
    }
  ],
  "bytecode": "0x60806040523480156200001157600080fd5b506040518060400160405280601381526020017f5375624c656e645820416363657373204e4654000000000000000000000000008152506040518060400160405280600381526020017f534c58000000000000000000000000000000000000000000000000000000000081525081600090816200008f91906200041a565b508060019081620000a191906200041a565b505050620000c4620000b8620000d260201b60201c565b620000da60201b60201c565b600160088190555062000501565b600033905090565b6000600760009054906101000a900473ffffffffffffffffffffffffffffffffffffffff16905081600760006101000a81548173ffffffffffffffffffffffffffffffffffffffff021916908373ffffffffffffffffffffffffffffffffffffffff1602179055508173ffffffffffffffffffffffffffffffffffffffff168173ffffffffffffffffffffffffffffffffffffffff167f8be0079c531659141344cd1fd0a4f28419497f9722a3daafe3b4186f6b6457e060405160405180910390a35050565b600081519050919050565b7f4e487b7100000000000000000000000000000000000000000000000000000000600052604160045260246000fd5b7f4e487b7100000000000000000000000000000000000000000000000000000000600052602260045260246000fd5b600060028204905060018216806200022257607f821691505b602082108103620002385762000237620001da565b5b50919050565b60008190508160005260206000209050919050565b60006020601f8301049050919050565b600082821b905092915050565b600060088302620002a27fffffffffffffffffffffffffffffffffffffffffffffffffffffffffffffffff8262000263565b620002ae868362000263565b95508019841693508086168417925050509392505050565b6000819050919050565b6000819050919050565b6000620002fb620002f5620002ef84620002c6565b620002d0565b620002c6565b9050919050565b6000819050919050565b6200031783620002da565b6200032f620003268262000302565b84845462000270565b825550505050565b600090565b6200034662000337565b620003538184846200030c565b505050565b5b818110156200037b576200036f6000826200033c565b60018101905062000359565b5050565b601f821115620003ca5762000394816200023e565b6200039f8462000253565b81016020851015620003af578190505b620003c7620003be8562000253565b83018262000358565b50505b505050565b600082821c905092915050565b6000620003ef60001984600802620003cf565b1980831691505092915050565b60006200040a8383620003dc565b9150826002028217905092915050565b6200042582620001a0565b67ffffffffffffffff811115620004415762000440620001ab565b5b6200044d825462000209565b6200045a8282856200037f565b600060209050601f8311600181146200049257600084156200047d578287015190505b620004898582620003fc565b865550620004f9565b601f198416620004a2866200023e565b60005b82811015620004cc57848901518255600182019150602085019450602081019050620004a5565b86831015620004ec5784890151620004e8601f891682620003dc565b8355505b6001600288020188555050505b505050505050565b613aeb80620005116000396000f3fe608060405234801561001057600080fd5b506004361061018e5760003560e01c80638da5cb5b116100de578063b88d4fde11610097578063c87b56dd11610071578063c87b56dd146104b7578063e970a120146104e7578063e985e9c514610505578063f2fde38b146105355761018e565b8063b88d4fde1461043b578063c2f1f14a14610457578063c474a946146104875761018e565b80638da5cb5b146103675780638fc88c4814610385578063927944db146103b557806395d89b41146103d1578063a22cb465146103ef578063b2d501551461040b5761018e565b806323b872dd1161014b57806351f8fefe1161012557806351f8fefe146102cd5780636352211e146102fd57806370a082311461032d578063715018a61461035d5761018e565b806323b872dd1461027957806342842e0e146102955780635113edc5146102b15761018e565b806301ffc9a71461019357806306fdde03146101c3578063081812fc146101e1578063095ea7b314610211578063112f21801461022d5780631b8a910d1461025d575b600080fd5b6101ad60048036038101906101a8919061261f565b610551565b6040516101ba9190612667565b60405180910390f35b6101cb610563565b6040516101d89190612712565b60405180910390f35b6101fb60048036038101906101f6919061276a565b6105f5565b60405161020891906127d8565b60405180910390f35b61022b6004803603810190610226919061281f565b61063b565b005b6102476004803603810190610242919061276a565b610752565b6040516102549190612712565b60405180910390f35b6102776004803603810190610272919061285f565b6107f7565b005b610293600480360381019061028e91906128b2565b610a92565b005b6102af60048036038101906102aa91906128b2565b610af2565b005b6102cb60048036038101906102c6919061276a565b610b12565b005b6102e760048036038101906102e29190612a3a565b610cac565b6040516102f49190612ae8565b60405180910390f35b6103176004803603810190610312919061276a565b610ddf565b60405161032491906127d8565b60405180910390f35b61034760048036038101906103429190612b03565b610e65565b6040516103549190612ae8565b60405180910390f35b610365610f1c565b005b61036f610f30565b60405161037c91906127d8565b60405180910390f35b61039f600480360381019061039a919061276a565b610f5a565b6040516103ac9190612ae8565b60405180910390f35b6103cf60048036038101906103ca9190612b03565b610f77565b005b6103d9610fc3565b6040516103e69190612712565b60405180910390f35b61040960048036038101906104049190612b5c565b611055565b005b6104256004803603810190610420919061276a565b61106b565b6040516104329190612712565b60405180910390f35b61045560048036038101906104509190612c3d565b611110565b005b610471600480360381019061046c919061276a565b611172565b60405161047e91906127d8565b60405180910390f35b6104a1600480360381019061049c919061276a565b6111d4565b6040516104ae9190612ae8565b60405180910390f35b6104d160048036038101906104cc919061276a565b6111f1565b6040516104de9190612712565b60405180910390f35b6104ef611203565b6040516104fc91906127d8565b60405180910390f35b61051f600480360381019061051a9190612cc0565b611229565b60405161052c9190612667565b60405180910390f35b61054f600480360381019061054a9190612b03565b6112bd565b005b600061055c82611340565b9050919050565b60606000805461057290612d2f565b80601f016020809104026020016040519081016040528092919081815260200182805461059e90612d2f565b80156105eb5780601f106105c0576101008083540402835291602001916105eb565b820191906000526020600020905b8154815290600101906020018083116105ce57829003601f168201915b5050505050905090565b6000610600826113a1565b6004600083815260200190815260200160002060009054906101000a900473ffffffffffffffffffffffffffffffffffffffff169050919050565b600061064682610ddf565b90508073ffffffffffffffffffffffffffffffffffffffff168373ffffffffffffffffffffffffffffffffffffffff16036106b6576040517f08c379a00000000000000000000000000000000000000000000000000000000081526004016106ad90612dd2565b60405180910390fd5b8073ffffffffffffffffffffffffffffffffffffffff166106d56113ec565b73ffffffffffffffffffffffffffffffffffffffff1614806107045750610703816106fe6113ec565b611229565b5b610743576040517f08c379a000000000000000000000000000000000000000000000000000000000815260040161073a90612e64565b60405180910390fd5b61074d83836113f4565b505050565b6060600a6000838152602001908152602001600020805461077290612d2f565b80601f016020809104026020016040519081016040528092919081815260200182805461079e90612d2f565b80156107eb5780601f106107c0576101008083540402835291602001916107eb565b820191906000526020600020905b8154815290600101906020018083116107ce57829003601f168201915b50505050509050919050565b6107ff610f30565b73ffffffffffffffffffffffffffffffffffffffff163373ffffffffffffffffffffffffffffffffffffffff1614806108855750600e60009054906101000a900473ffffffffffffffffffffffffffffffffffffffff1673ffffffffffffffffffffffffffffffffffffffff163373ffffffffffffffffffffffffffffffffffffffff16145b6108c4576040517f08c379a00000000000000000000000000000000000000000000000000000000081526004016108bb90612ed0565b60405180910390fd5b3373ffffffffffffffffffffffffffffffffffffffff166108e484610ddf565b73ffffffffffffffffffffffffffffffffffffffff1614806109535750600e60009054906101000a900473ffffffffffffffffffffffffffffffffffffffff1673ffffffffffffffffffffffffffffffffffffffff163373ffffffffffffffffffffffffffffffffffffffff16145b610992576040517f08c379a000000000000000000000000000000000000000000000000000000000815260040161098990612f3c565b60405180910390fd5b4281116109d4576040517f08c379a00000000000000000000000000000000000000000000000000000000081526004016109cb90612fa8565b60405180910390fd5b81600c600085815260200190815260200160002060006101000a81548173ffffffffffffffffffffffffffffffffffffffff021916908373ffffffffffffffffffffffffffffffffffffffff16021790555080600d6000858152602001908152602001600020819055508173ffffffffffffffffffffffffffffffffffffffff16837f68045833607620b046673ad9d71b3f95e5626241b0d4d66477a2c600ad85b71683604051610a859190612ae8565b60405180910390a3505050565b610aa3610a9d6113ec565b826114ad565b610ae2576040517f08c379a0000000000000000000000000000000000000000000000000000000008152600401610ad99061303a565b60405180910390fd5b610aed838383611542565b505050565b610b0d83838360405180602001604052806000815250611110565b505050565b610b1a610f30565b73ffffffffffffffffffffffffffffffffffffffff163373ffffffffffffffffffffffffffffffffffffffff161480610ba05750600e60009054906101000a900473ffffffffffffffffffffffffffffffffffffffff1673ffffffffffffffffffffffffffffffffffffffff163373ffffffffffffffffffffffffffffffffffffffff16145b610bdf576040517f08c379a0000000000000000000000000000000000000000000000000000000008152600401610bd690612ed0565b60405180910390fd5b6000600c600083815260200190815260200160002060009054906101000a900473ffffffffffffffffffffffffffffffffffffffff169050600c600083815260200190815260200160002060006101000a81549073ffffffffffffffffffffffffffffffffffffffff0219169055600d6000838152602001908152602001600020600090558073ffffffffffffffffffffffffffffffffffffffff16827f0819476e55ffbe23df64353d5f7898429609397cc93c44300b058b51648f787860405160405180910390a35050565b60003373ffffffffffffffffffffffffffffffffffffffff168573ffffffffffffffffffffffffffffffffffffffff1614610d1c576040517f08c379a0000000000000000000000000000000000000000000000000000000008152600401610d13906130a6565b60405180910390fd5b600060096000815480929190610d31906130f5565b919050559050610d41868261183b565b610d4b8186611859565b83600a60008381526020019081526020016000209081610d6b91906132e9565b5082600b6000838152602001908152602001600020819055508573ffffffffffffffffffffffffffffffffffffffff16817f3b8a974a6971dbe70c8718ec80406b2790d2aa5477b6a5bed3d94fa19e06d60d86604051610dcb9190612712565b60405180910390a380915050949350505050565b600080610deb836118fd565b9050600073ffffffffffffffffffffffffffffffffffffffff168173ffffffffffffffffffffffffffffffffffffffff1603610e5c576040517f08c379a0000000000000000000000000000000000000000000000000000000008152600401610e5390613407565b60405180910390fd5b80915050919050565b60008073ffffffffffffffffffffffffffffffffffffffff168273ffffffffffffffffffffffffffffffffffffffff1603610ed5576040517f08c379a0000000000000000000000000000000000000000000000000000000008152600401610ecc90613499565b60405180910390fd5b600360008373ffffffffffffffffffffffffffffffffffffffff1673ffffffffffffffffffffffffffffffffffffffff168152602001908152602001600020549050919050565b610f2461193a565b610f2e60006119b8565b565b6000600760009054906101000a900473ffffffffffffffffffffffffffffffffffffffff16905090565b6000600d6000838152602001908152602001600020549050919050565b610f7f61193a565b80600e60006101000a81548173ffffffffffffffffffffffffffffffffffffffff021916908373ffffffffffffffffffffffffffffffffffffffff16021790555050565b606060018054610fd290612d2f565b80601f0160208091040260200160405190810160405280929190818152602001828054610ffe90612d2f565b801561104b5780601f106110205761010080835404028352916020019161104b565b820191906000526020600020905b81548152906001019060200180831161102e57829003601f168201915b5050505050905090565b6110676110606113ec565b8383611a7e565b5050565b6060600a6000838152602001908152602001600020805461108b90612d2f565b80601f01602080910402602001604051908101604052809291908181526020018280546110b790612d2f565b80156111045780601f106110d957610100808354040283529160200191611104565b820191906000526020600020905b8154815290600101906020018083116110e757829003601f168201915b50505050509050919050565b61112161111b6113ec565b836114ad565b611160576040517f08c379a00000000000000000000000000000000000000000000000000000000081526004016111579061303a565b60405180910390fd5b61116c84848484611bea565b50505050565b600042600d600084815260200190815260200160002054101561119857600090506111cf565b600c600083815260200190815260200160002060009054906101000a900473ffffffffffffffffffffffffffffffffffffffff1690505b919050565b6000600b6000838152602001908152602001600020549050919050565b60606111fc82611c46565b9050919050565b600e60009054906101000a900473ffffffffffffffffffffffffffffffffffffffff1681565b6000600560008473ffffffffffffffffffffffffffffffffffffffff1673ffffffffffffffffffffffffffffffffffffffff16815260200190815260200160002060008373ffffffffffffffffffffffffffffffffffffffff1673ffffffffffffffffffffffffffffffffffffffff16815260200190815260200160002060009054906101000a900460ff16905092915050565b6112c561193a565b600073ffffffffffffffffffffffffffffffffffffffff168173ffffffffffffffffffffffffffffffffffffffff1603611334576040517f08c379a000000000000000000000000000000000000000000000000000000000815260040161132b9061352b565b60405180910390fd5b61133d816119b8565b50565b6000634906490660e01b7bffffffffffffffffffffffffffffffffffffffffffffffffffffffff1916827bffffffffffffffffffffffffffffffffffffffffffffffffffffffff1916148061139a575061139982611d58565b5b9050919050565b6113aa81611e3a565b6113e9576040517f08c379a00000000000000000000000000000000000000000000000000000000081526004016113e090613407565b60405180910390fd5b50565b600033905090565b816004600083815260200190815260200160002060006101000a81548173ffffffffffffffffffffffffffffffffffffffff021916908373ffffffffffffffffffffffffffffffffffffffff160217905550808273ffffffffffffffffffffffffffffffffffffffff1661146783610ddf565b73ffffffffffffffffffffffffffffffffffffffff167f8c5be1e5ebec7d5bd14f71427d1e84f3dd0314c0f7b2291e5b200ac8c7c3b92560405160405180910390a45050565b6000806114b983610ddf565b90508073ffffffffffffffffffffffffffffffffffffffff168473ffffffffffffffffffffffffffffffffffffffff1614806114fb57506114fa8185611229565b5b8061153957508373ffffffffffffffffffffffffffffffffffffffff16611521846105f5565b73ffffffffffffffffffffffffffffffffffffffff16145b91505092915050565b8273ffffffffffffffffffffffffffffffffffffffff1661156282610ddf565b73ffffffffffffffffffffffffffffffffffffffff16146115b8576040517f08c379a00000000000000000000000000000000000000000000000000000000081526004016115af906135bd565b60405180910390fd5b600073ffffffffffffffffffffffffffffffffffffffff168273ffffffffffffffffffffffffffffffffffffffff1603611627576040517f08c379a000000000000000000000000000000000000000000000000000000000815260040161161e9061364f565b60405180910390fd5b6116348383836001611e7b565b8273ffffffffffffffffffffffffffffffffffffffff1661165482610ddf565b73ffffffffffffffffffffffffffffffffffffffff16146116aa576040517f08c379a00000000000000000000000000000000000000000000000000000000081526004016116a1906135bd565b60405180910390fd5b6004600082815260200190815260200160002060006101000a81549073ffffffffffffffffffffffffffffffffffffffff02191690556001600360008573ffffffffffffffffffffffffffffffffffffffff1673ffffffffffffffffffffffffffffffffffffffff168152602001908152602001600020600082825403925050819055506001600360008473ffffffffffffffffffffffffffffffffffffffff1673ffffffffffffffffffffffffffffffffffffffff16815260200190815260200160002060008282540192505081905550816002600083815260200190815260200160002060006101000a81548173ffffffffffffffffffffffffffffffffffffffff021916908373ffffffffffffffffffffffffffffffffffffffff160217905550808273ffffffffffffffffffffffffffffffffffffffff168473ffffffffffffffffffffffffffffffffffffffff167fddf252ad1be2c89b69c2b068fc378daa952ba7f163c4a11628f55a4df523b3ef60405160405180910390a46118368383836001611e81565b505050565b611855828260405180602001604052806000815250611e87565b5050565b61186282611e3a565b6118a1576040517f08c379a0000000000000000000000000000000000000000000000000000000008152600401611898906136e1565b60405180910390fd5b806006600084815260200190815260200160002090816118c191906132e9565b507ff8e1a15aba9398e019f0b49df1a4fde98ee17ae345cb5f6b5e2c27f5033e8ce7826040516118f19190612ae8565b60405180910390a15050565b60006002600083815260200190815260200160002060009054906101000a900473ffffffffffffffffffffffffffffffffffffffff169050919050565b6119426113ec565b73ffffffffffffffffffffffffffffffffffffffff16611960610f30565b73ffffffffffffffffffffffffffffffffffffffff16146119b6576040517f08c379a00000000000000000000000000000000000000000000000000000000081526004016119ad9061374d565b60405180910390fd5b565b6000600760009054906101000a900473ffffffffffffffffffffffffffffffffffffffff16905081600760006101000a81548173ffffffffffffffffffffffffffffffffffffffff021916908373ffffffffffffffffffffffffffffffffffffffff1602179055508173ffffffffffffffffffffffffffffffffffffffff168173ffffffffffffffffffffffffffffffffffffffff167f8be0079c531659141344cd1fd0a4f28419497f9722a3daafe3b4186f6b6457e060405160405180910390a35050565b8173ffffffffffffffffffffffffffffffffffffffff168373ffffffffffffffffffffffffffffffffffffffff1603611aec576040517f08c379a0000000000000000000000000000000000000000000000000000000008152600401611ae3906137b9565b60405180910390fd5b80600560008573ffffffffffffffffffffffffffffffffffffffff1673ffffffffffffffffffffffffffffffffffffffff16815260200190815260200160002060008473ffffffffffffffffffffffffffffffffffffffff1673ffffffffffffffffffffffffffffffffffffffff16815260200190815260200160002060006101000a81548160ff0219169083151502179055508173ffffffffffffffffffffffffffffffffffffffff168373ffffffffffffffffffffffffffffffffffffffff167f17307eab39ab6107e8899845ad3d59bd9653f200f220920489ca2b5937696c3183604051611bdd9190612667565b60405180910390a3505050565b611bf5848484611542565b611c0184848484611ee2565b611c40576040517f08c379a0000000000000000000000000000000000000000000000000000000008152600401611c379061384b565b60405180910390fd5b50505050565b6060611c51826113a1565b6000600660008481526020019081526020016000208054611c7190612d2f565b80601f0160208091040260200160405190810160405280929190818152602001828054611c9d90612d2f565b8015611cea5780601f10611cbf57610100808354040283529160200191611cea565b820191906000526020600020905b815481529060010190602001808311611ccd57829003601f168201915b505050505090506000611cfb612069565b90506000815103611d10578192505050611d53565b600082511115611d45578082604051602001611d2d9291906138a7565b60405160208183030381529060405292505050611d53565b611d4e84612080565b925050505b919050565b60007f80ac58cd000000000000000000000000000000000000000000000000000000007bffffffffffffffffffffffffffffffffffffffffffffffffffffffff1916827bffffffffffffffffffffffffffffffffffffffffffffffffffffffff19161480611e2357507f5b5e139f000000000000000000000000000000000000000000000000000000007bffffffffffffffffffffffffffffffffffffffffffffffffffffffff1916827bffffffffffffffffffffffffffffffffffffffffffffffffffffffff1916145b80611e335750611e32826120e8565b5b9050919050565b60008073ffffffffffffffffffffffffffffffffffffffff16611e5c836118fd565b73ffffffffffffffffffffffffffffffffffffffff1614159050919050565b50505050565b50505050565b611e918383612152565b611e9e6000848484611ee2565b611edd576040517f08c379a0000000000000000000000000000000000000000000000000000000008152600401611ed49061384b565b60405180910390fd5b505050565b6000611f038473ffffffffffffffffffffffffffffffffffffffff1661236f565b1561205c578373ffffffffffffffffffffffffffffffffffffffff1663150b7a02611f2c6113ec565b8786866040518563ffffffff1660e01b8152600401611f4e9493929190613920565b6020604051808303816000875af1925050508015611f8a57506040513d601f19601f82011682018060405250810190611f879190613981565b60015b61200c573d8060008114611fba576040519150601f19603f3d011682016040523d82523d6000602084013e611fbf565b606091505b506000815103612004576040517f08c379a0000000000000000000000000000000000000000000000000000000008152600401611ffb9061384b565b60405180910390fd5b805181602001fd5b63150b7a0260e01b7bffffffffffffffffffffffffffffffffffffffffffffffffffffffff1916817bffffffffffffffffffffffffffffffffffffffffffffffffffffffff191614915050612061565b600190505b949350505050565b606060405180602001604052806000815250905090565b606061208b826113a1565b6000612095612069565b905060008151116120b557604051806020016040528060008152506120e0565b806120bf84612392565b6040516020016120d09291906138a7565b6040516020818303038152906040525b915050919050565b60007f01ffc9a7000000000000000000000000000000000000000000000000000000007bffffffffffffffffffffffffffffffffffffffffffffffffffffffff1916827bffffffffffffffffffffffffffffffffffffffffffffffffffffffff1916149050919050565b600073ffffffffffffffffffffffffffffffffffffffff168273ffffffffffffffffffffffffffffffffffffffff16036121c1576040517f08c379a00000000000000000000000000000000000000000000000000000000081526004016121b8906139fa565b60405180910390fd5b6121ca81611e3a565b1561220a576040517f08c379a000000000000000000000000000000000000000000000000000000000815260040161220190613a66565b60405180910390fd5b612218600083836001611e7b565b61222181611e3a565b15612261576040517f08c379a000000000000000000000000000000000000000000000000000000000815260040161225890613a66565b60405180910390fd5b6001600360008473ffffffffffffffffffffffffffffffffffffffff1673ffffffffffffffffffffffffffffffffffffffff16815260200190815260200160002060008282540192505081905550816002600083815260200190815260200160002060006101000a81548173ffffffffffffffffffffffffffffffffffffffff021916908373ffffffffffffffffffffffffffffffffffffffff160217905550808273ffffffffffffffffffffffffffffffffffffffff16600073ffffffffffffffffffffffffffffffffffffffff167fddf252ad1be2c89b69c2b068fc378daa952ba7f163c4a11628f55a4df523b3ef60405160405180910390a461236b600083836001611e81565b5050565b6000808273ffffffffffffffffffffffffffffffffffffffff163b119050919050565b6060600060016123a184612460565b01905060008167ffffffffffffffff8111156123c0576123bf61290f565b5b6040519080825280601f01601f1916602001820160405280156123f25781602001600182028036833780820191505090505b509050600082602001820190505b600115612455578080600190039150507f3031323334353637383961626364656600000000000000000000000000000000600a86061a8153600a858161244957612448613a86565b5b04945060008503612400575b819350505050919050565b600080600090507a184f03e93ff9f4daa797ed6e38ed64bf6a1f01000000000000000083106124be577a184f03e93ff9f4daa797ed6e38ed64bf6a1f01000000000000000083816124b4576124b3613a86565b5b0492506040810190505b6d04ee2d6d415b85acef810000000083106124fb576d04ee2d6d415b85acef810000000083816124f1576124f0613a86565b5b0492506020810190505b662386f26fc10000831061252a57662386f26fc1000083816125205761251f613a86565b5b0492506010810190505b6305f5e1008310612553576305f5e100838161254957612548613a86565b5b0492506008810190505b612710831061257857612710838161256e5761256d613a86565b5b0492506004810190505b6064831061259b576064838161259157612590613a86565b5b0492506002810190505b600a83106125aa576001810190505b80915050919050565b6000604051905090565b600080fd5b600080fd5b60007fffffffff0000000000000000000000000000000000000000000000000000000082169050919050565b6125fc816125c7565b811461260757600080fd5b50565b600081359050612619816125f3565b92915050565b600060208284031215612635576126346125bd565b5b60006126438482850161260a565b91505092915050565b60008115159050919050565b6126618161264c565b82525050565b600060208201905061267c6000830184612658565b92915050565b600081519050919050565b600082825260208201905092915050565b60005b838110156126bc5780820151818401526020810190506126a1565b60008484015250505050565b6000601f19601f8301169050919050565b60006126e482612682565b6126ee818561268d565b93506126fe81856020860161269e565b612707816126c8565b840191505092915050565b6000602082019050818103600083015261272c81846126d9565b905092915050565b6000819050919050565b61274781612734565b811461275257600080fd5b50565b6000813590506127648161273e565b92915050565b6000602082840312156127805761277f6125bd565b5b600061278e84828501612755565b91505092915050565b600073ffffffffffffffffffffffffffffffffffffffff82169050919050565b60006127c282612797565b9050919050565b6127d2816127b7565b82525050565b60006020820190506127ed60008301846127c9565b92915050565b6127fc816127b7565b811461280757600080fd5b50565b600081359050612819816127f3565b92915050565b60008060408385031215612836576128356125bd565b5b60006128448582860161280a565b925050602061285585828601612755565b9150509250929050565b600080600060608486031215612878576128776125bd565b5b600061288686828701612755565b93505060206128978682870161280a565b92505060406128a886828701612755565b9150509250925092565b6000806000606084860312156128cb576128ca6125bd565b5b60006128d98682870161280a565b93505060206128ea8682870161280a565b92505060406128fb86828701612755565b9150509250925092565b600080fd5b600080fd5b7f4e487b7100000000000000000000000000000000000000000000000000000000600052604160045260246000fd5b612947826126c8565b810181811067ffffffffffffffff821117156129665761296561290f565b5b80604052505050565b60006129796125b3565b9050612985828261293e565b919050565b600067ffffffffffffffff8211156129a5576129a461290f565b5b6129ae826126c8565b9050602081019050919050565b82818337600083830152505050565b60006129dd6129d88461298a565b61296f565b9050828152602081018484840111156129f9576129f861290a565b5b612a048482856129bb565b509392505050565b600082601f830112612a2157612a20612905565b5b8135612a318482602086016129ca565b91505092915050565b60008060008060808587031215612a5457612a536125bd565b5b6000612a628782880161280a565b945050602085013567ffffffffffffffff811115612a8357612a826125c2565b5b612a8f87828801612a0c565b935050604085013567ffffffffffffffff811115612ab057612aaf6125c2565b5b612abc87828801612a0c565b9250506060612acd87828801612755565b91505092959194509250565b612ae281612734565b82525050565b6000602082019050612afd6000830184612ad9565b92915050565b600060208284031215612b1957612b186125bd565b5b6000612b278482850161280a565b91505092915050565b612b398161264c565b8114612b4457600080fd5b50565b600081359050612b5681612b30565b92915050565b60008060408385031215612b7357612b726125bd565b5b6000612b818582860161280a565b9250506020612b9285828601612b47565b9150509250929050565b600067ffffffffffffffff821115612bb757612bb661290f565b5b612bc0826126c8565b9050602081019050919050565b6000612be0612bdb84612b9c565b61296f565b905082815260208101848484011115612bfc57612bfb61290a565b5b612c078482856129bb565b509392505050565b600082601f830112612c2457612c23612905565b5b8135612c34848260208601612bcd565b91505092915050565b60008060008060808587031215612c5757612c566125bd565b5b6000612c658782880161280a565b9450506020612c768782880161280a565b9350506040612c8787828801612755565b925050606085013567ffffffffffffffff811115612ca857612ca76125c2565b5b612cb487828801612c0f565b91505092959194509250565b60008060408385031215612cd757612cd66125bd565b5b6000612ce58582860161280a565b9250506020612cf68582860161280a565b9150509250929050565b7f4e487b7100000000000000000000000000000000000000000000000000000000600052602260045260246000fd5b60006002820490506001821680612d4757607f821691505b602082108103612d5a57612d59612d00565b5b50919050565b7f4552433732313a20617070726f76616c20746f2063757272656e74206f776e6560008201527f7200000000000000000000000000000000000000000000000000000000000000602082015250565b6000612dbc60218361268d565b9150612dc782612d60565b604082019050919050565b60006020820190508181036000830152612deb81612daf565b9050919050565b7f4552433732313a20617070726f76652063616c6c6572206973206e6f7420746f60008201527f6b656e206f776e6572206f7220617070726f76656420666f7220616c6c000000602082015250565b6000612e4e603d8361268d565b9150612e5982612df2565b604082019050919050565b60006020820190508181036000830152612e7d81612e41565b9050919050565b7f556e617574686f72697a65640000000000000000000000000000000000000000600082015250565b6000612eba600c8361268d565b9150612ec582612e84565b602082019050919050565b60006020820190508181036000830152612ee981612ead565b9050919050565b7f4e6f74206f776e6572206f7220657363726f7700000000000000000000000000600082015250565b6000612f2660138361268d565b9150612f3182612ef0565b602082019050919050565b60006020820190508181036000830152612f5581612f19565b9050919050565b7f45787069726174696f6e206d75737420626520696e2074686520667574757265600082015250565b6000612f9260208361268d565b9150612f9d82612f5c565b602082019050919050565b60006020820190508181036000830152612fc181612f85565b9050919050565b7f4552433732313a2063616c6c6572206973206e6f7420746f6b656e206f776e6560008201527f72206f7220617070726f76656400000000000000000000000000000000000000602082015250565b6000613024602d8361268d565b915061302f82612fc8565b604082019050919050565b6000602082019050818103600083015261305381613017565b9050919050565b7f43616e206f6e6c79206d696e7420746f20796f757273656c6600000000000000600082015250565b600061309060198361268d565b915061309b8261305a565b602082019050919050565b600060208201905081810360008301526130bf81613083565b9050919050565b7f4e487b7100000000000000000000000000000000000000000000000000000000600052601160045260246000fd5b600061310082612734565b91507fffffffffffffffffffffffffffffffffffffffffffffffffffffffffffffffff8203613132576131316130c6565b5b600182019050919050565b60008190508160005260206000209050919050565b60006020601f8301049050919050565b600082821b905092915050565b60006008830261319f7fffffffffffffffffffffffffffffffffffffffffffffffffffffffffffffffff82613162565b6131a98683613162565b95508019841693508086168417925050509392505050565b6000819050919050565b60006131e66131e16131dc84612734565b6131c1565b612734565b9050919050565b6000819050919050565b613200836131cb565b61321461320c826131ed565b84845461316f565b825550505050565b600090565b61322961321c565b6132348184846131f7565b505050565b5b818110156132585761324d600082613221565b60018101905061323a565b5050565b601f82111561329d5761326e8161313d565b61327784613152565b81016020851015613286578190505b61329a61329285613152565b830182613239565b50505b505050565b600082821c905092915050565b60006132c0600019846008026132a2565b1980831691505092915050565b60006132d983836132af565b9150826002028217905092915050565b6132f282612682565b67ffffffffffffffff81111561330b5761330a61290f565b5b6133158254612d2f565b61332082828561325c565b600060209050601f8311600181146133535760008415613341578287015190505b61334b85826132cd565b8655506133b3565b601f1984166133618661313d565b60005b8281101561338957848901518255600182019150602085019450602081019050613364565b868310156133a657848901516133a2601f8916826132af565b8355505b6001600288020188555050505b505050505050565b7f4552433732313a20696e76616c696420746f6b656e2049440000000000000000600082015250565b60006133f160188361268d565b91506133fc826133bb565b602082019050919050565b60006020820190508181036000830152613420816133e4565b9050919050565b7f4552433732313a2061646472657373207a65726f206973206e6f74206120766160008201527f6c6964206f776e65720000000000000000000000000000000000000000000000602082015250565b600061348360298361268d565b915061348e82613427565b604082019050919050565b600060208201905081810360008301526134b281613476565b9050919050565b7f4f776e61626c653a206e6577206f776e657220697320746865207a65726f206160008201527f6464726573730000000000000000000000000000000000000000000000000000602082015250565b600061351560268361268d565b9150613520826134b9565b604082019050919050565b6000602082019050818103600083015261354481613508565b9050919050565b7f4552433732313a207472616e736665722066726f6d20696e636f72726563742060008201527f6f776e6572000000000000000000000000000000000000000000000000000000602082015250565b60006135a760258361268d565b91506135b28261354b565b604082019050919050565b600060208201905081810360008301526135d68161359a565b9050919050565b7f4552433732313a207472616e7366657220746f20746865207a65726f2061646460008201527f7265737300000000000000000000000000000000000000000000000000000000602082015250565b600061363960248361268d565b9150613644826135dd565b604082019050919050565b600060208201905081810360008301526136688161362c565b9050919050565b7f45524337323155524953746f726167653a2055524920736574206f66206e6f6e60008201527f6578697374656e7420746f6b656e000000000000000000000000000000000000602082015250565b60006136cb602e8361268d565b91506136d68261366f565b604082019050919050565b600060208201905081810360008301526136fa816136be565b9050919050565b7f4f776e61626c653a2063616c6c6572206973206e6f7420746865206f776e6572600082015250565b600061373760208361268d565b915061374282613701565b602082019050919050565b600060208201905081810360008301526137668161372a565b9050919050565b7f4552433732313a20617070726f766520746f2063616c6c657200000000000000600082015250565b60006137a360198361268d565b91506137ae8261376d565b602082019050919050565b600060208201905081810360008301526137d281613796565b9050919050565b7f4552433732313a207472616e7366657220746f206e6f6e20455243373231526560008201527f63656976657220696d706c656d656e7465720000000000000000000000000000602082015250565b600061383560328361268d565b9150613840826137d9565b604082019050919050565b6000602082019050818103600083015261386481613828565b9050919050565b600081905092915050565b600061388182612682565b61388b818561386b565b935061389b81856020860161269e565b80840191505092915050565b60006138b38285613876565b91506138bf8284613876565b91508190509392505050565b600081519050919050565b600082825260208201905092915050565b60006138f2826138cb565b6138fc81856138d6565b935061390c81856020860161269e565b613915816126c8565b840191505092915050565b600060808201905061393560008301876127c9565b61394260208301866127c9565b61394f6040830185612ad9565b818103606083015261396181846138e7565b905095945050505050565b60008151905061397b816125f3565b92915050565b600060208284031215613997576139966125bd565b5b60006139a58482850161396c565b91505092915050565b7f4552433732313a206d696e7420746f20746865207a65726f2061646472657373600082015250565b60006139e460208361268d565b91506139ef826139ae565b602082019050919050565b60006020820190508181036000830152613a13816139d7565b9050919050565b7f4552433732313a20746f6b656e20616c7265616479206d696e74656400000000600082015250565b6000613a50601c8361268d565b9150613a5b82613a1a565b602082019050919050565b60006020820190508181036000830152613a7f81613a43565b9050919050565b7f4e487b7100000000000000000000000000000000000000000000000000000000600052601260045260246000fdfea2646970667358221220c52fb5047ca809d26327584157fa4e3e101c6ecba996d18a85e858f66cbab34664736f6c63430008140033",
  "linkReferences": {},
  "deployedLinkReferences": {}
}